:100000000C94C4000C94EC000C94EC000C94EC00E8
:100010000C94EC000C94EC000C94EC000C94EC00B0
:100020000C94EC000C94EC000C94EC000C94EC00A0
:100030000C94EC000C94E90B0C94EC000C94EC0088
:100040000C940E110C94EC000C94A20E0C94E90E7E
:100050000C94EC000C94EC000C94EC000C94EC0070
:100060000C94EC000C94EC00000306090C0F121524
:10007000181C1F2225282B2E303336393C3F414493
:1000800047494C4E515355585A5C5E6062646668ED
:100090006A6C6D6F70727375767778797A7B7C7C19
:1000A0007D7E7E7F7F7F7F7F7F7F7F7F7F7F7E7E66
:1000B0007D7C7C7B7A79787776757372706F6D6CE6
:1000C0006A68666462605E5C5A585553514E4C498A
:1000D0004744413F3C393633302E2B2825221F1C04
:1000E0001815120F0C09060300FDFAF7F4F1EEEBF8
:1000F000E8E4E1DEDBD8D5D2D0CDCAC7C4C1BFBCED
:10010000B9B7B4B2AFADABA8A6A4A2A09E9C9A9872
:1001100096949391908E8D8B8A8988878685848426
:100120008382828181818181000000002400270078
:100130002A0000000000250028002B00000000001D
:100140002300260029000404040404040404020219
:100150000202020203030303030301020408102046
:100160004080010204081020010204081020000051
:100170000007000201000003040600000000000068
:10018000000067026010780211241FBECFEFD8E094
:10019000DEBFCDBF12E0A0E0B1E0E0E8F9E202C0CE
:1001A00005900D92A631B107D9F714E0A6E1B2E0AF
:1001B00001C01D92A036B107E1F711E0C6E8D1E019
:1001C00004C02297FE010E947814C238D107C9F7F3
:1001D0000E94FC100C94B3140C940000CF93DF9396
:1001E000BC018230910510F462E070E0A0915E04E1
:1001F000B0915F04ED01E0E0F0E040E050E021C0AC
:10020000888199818617970769F48A819B81309745
:1002100019F09383828304C090935F0480935E04FB
:10022000FE0134C06817790738F44115510519F0FB
:100230008417950708F4AC01FE018A819B819C011B
:10024000E9012097E9F641155105A9F1CA01861B7C
:10025000970B049708F4BA01E0E0F0E02AC08D9112
:100260009C91119784179507F9F46417750781F429
:1002700012968D919C911397309719F093838283F6
:1002800004C090935F0480935E04FD0132964CC0DD
:10029000CA01861B970BFD01E80FF91F619371934B
:1002A00002978D939C9340C0FD01828193819C01B4
:1002B000D9011097A1F680915C0490915D04892B7F
:1002C00041F480911E0190911F0190935D048093F1
:1002D0005C0440912001509121014115510541F4E8
:1002E0004DB75EB780911C0190911D01481B590BC1
:1002F00020915C0430915D04CA01821B930B861728
:10030000970780F0AB014E5F5F4F8417950750F061
:10031000420F531F50935D0440935C04F9016193B5
:10032000719302C0E0E0F0E0CF01DF91CF9108953A
:10033000CF93DF93009709F450C0EC0122971B8202
:100340001A82A0915E04B0915F04109709F140E019
:1003500050E0AC17BD0708F1BB83AA83FE012191D1
:100360003191E20FF31FAE17BF0779F48D919C9185
:100370001197280F391F2E5F3F4F3983288312961C
:100380008D919C9113979B838A834115510571F43C
:10039000D0935F04C0935E0420C012968D919C910F
:1003A0001397AD01009711F0DC01D3CFFA01D3838D
:1003B000C28321913191E20FF31FCE17DF0769F459
:1003C00088819981280F391F2E5F3F4FFA013183B1
:1003D00020838A819B8193838283DF91CF910895CB
:1003E000A0E0B0E0E6EFF1E00C948414EC01A8800A
:1003F000B980CA80DB80A114B104C104D10441F4E6
:1004000084E2A82E89EDB82E8BE5C82E87E0D82E81
:10041000C601B5012DE133EF41E050E00E945B14CD
:1004200027EA31E440E050E00E94F3137B018C01A5
:10043000C601B5012DE133EF41E050E00E945B14AD
:10044000CA01B9012CEE34EF4FEF5FEF0E94F313B6
:100450006E0D7F1D801F911F97FF04C0615070407B
:1004600080409048688379838A839B839B01AC0199
:100470005F77B901CA01CDB7DEB7EAE00C94A014EA
:100480000E94F001089582E291E00E94F001089537
:10049000609322017093230180932401909325019E
:1004A0000895FB01DC0101900D920020E1F7089511
:1004B000FC0182E092E0918380830895FC0185E055
:1004C000868364830895FC0173836283089582E0C8
:1004D00092E0909317028093160284E690E0909346
:1004E00019028093180210921E0210921D020895A4
:1004F00082E092E0909317028093160208950F9382
:100500001F93CF93DF938C0187579F4F075F1F4F38
:10051000B80147E050E020E030E00E94100CE80114
:10052000CF57DF4F01E010E02881332727FD3095BA
:10053000C058D0408881C058DF4F992787FD9095DB
:10054000889FB001899F700D989F700D1124C9017B
:10055000889F9001899F300D989F300D1124620F64
:10056000731F882777FD8095982F0E9427130E947C
:1005700092130E94F4126883C058DF4F68830F5FA4
:100580001F4FCF57D0400034110571F6DF91CF9146
:100590001F910F9108950F931F93CF93DF93EC0159
:1005A00000E010E080E00E940512C757DF4F64E0D2
:1005B00070E00E94261460586883C958D04019869C
:1005C0000F5F1F4F21960038110561F7DF91CF9122
:1005D0001F910F9108958F929F92AF92BF92CF92E9
:1005E000DF92EF92FF920F931F93CF93DF937A01E5
:1005F0008B01FC018581823009F473C1833030F4B2
:10060000882359F0813009F081C3B9C0833009F4DF
:100610001AC2843009F07AC3C8C2F4E0DF2EC0E009
:10062000D0E0E1E08E2E912CA12CB12CCC2E9E019D
:100630002C5F3F4FD501C401022E04C0880F991FC3
:10064000AA1FBB1F0A94D2F78E219F21A023B1239A
:1006500004C0B695A795979587952A95D2F70197E7
:10066000A105B10529F484E062E04D2D0E940A0E37
:100670009E012D5F3F4FD501C401022E04C0880F9B
:10068000991FAA1FBB1F0A94D2F78E219F21A02376
:10069000B12304C0B695A795979587952A95D2F76B
:1006A0000197A105B10529F483E062E04D2D0E9478
:1006B0000A0E9E012E5F3F4FD501C401022E04C0D9
:1006C000880F991FAA1FBB1F0A94D2F78E219F2162
:1006D000A023B12304C0B695A795979587952A9531
:1006E000D2F70197A105B10529F482E062E04D2D12
:1006F0000E940A0E9E012F5F3F4FD501C401022EBA
:1007000004C0880F991FAA1FBB1F0A94D2F78E211D
:100710009F21A023B12304C0B695A79597958795EF
:100720002A95D2F70197A105B10529F481E062E08D
:100730004D2D0E940A0ED501C4010C2C04C0880F57
:10074000991FAA1FBB1F0A94D2F78E219F21A023B5
:10075000B12304C0B695A79597958795CA94D2F70B
:100760000197A105B10529F480E062E04D2D0E94BA
:100770000A0E2596DD2009F4C9C2DA9457CF74E039
:10078000D72EC0E0D0E061E0862E912CA12CB12CB8
:10079000CC2E9E012C5F3F4FD501C401022E04C018
:1007A000880F991FAA1FBB1F0A94D2F78E219F2181
:1007B000A023B12304C0B695A795979587952A9550
:1007C000D2F70197A105B10529F484E064E04D2D2D
:1007D0000E940A0E9E012D5F3F4FD501C401022EDB
:1007E00004C0880F991FAA1FBB1F0A94D2F78E213D
:1007F0009F21A023B12304C0B695A795979587950F
:100800002A95D2F70197A105B10529F483E063E0A9
:100810004D2D0E940A0E9E012E5F3F4FD501C4014F
:10082000022E04C0880F991FAA1FBB1F0A94D2F77B
:100830008E219F21A023B12304C0B695A79597953B
:1008400087952A95D2F70197A105B10529F482E091
:1008500062E04D2D0E940A0E9E012F5F3F4FD50191
:10086000C401022E04C0880F991FAA1FBB1F0A943F
:10087000D2F78E219F21A023B12304C0B695A7955E
:10088000979587952A95D2F70197A105B10529F487
:1008900081E061E04D2D0E940A0ED501C4010C2CAF
:1008A00004C0880F991FAA1FBB1F0A94D2F78E217C
:1008B0009F21A023B12304C0B695A795979587954E
:1008C000CA94D2F70197A105B10529F480E060E050
:1008D0004D2D0E940A0E2596DD2009F417C2DA94E8
:1008E00057CF54E0D52EC0E0D0E041E0842E912CCB
:1008F000A12CB12CCC2E9E012C5F3F4FD501C40101
:10090000022E04C0880F991FAA1FBB1F0A94D2F79A
:100910008E219F21A023B12304C0B695A79597955A
:1009200087952A95D2F70197A105B10529F482E0B0
:1009300064E04D2D0E940A0E9E012D5F3F4FD501B0
:10094000C401022E04C0880F991FAA1FBB1F0A945E
:10095000D2F78E219F21A023B12304C0B695A7957D
:10096000979587952A95D2F70197A105B10529F4A6
:1009700082E063E04D2D0E940A0E9E012E5F3F4FE4
:10098000D501C401022E04C0880F991FAA1FBB1FE6
:100990000A94D2F78E219F21A023B12304C0B695DB
:1009A000A795979587952A95D2F70197A105B10547
:1009B00029F482E062E04D2D0E940A0E9E012F5F15
:1009C0003F4FD501C401022E04C0880F991FAA1FF2
:1009D000BB1F0A94D2F78E219F21A023B12304C00C
:1009E000B695A795979587952A95D2F70197A10572
:1009F000B10529F482E061E04D2D0E940A0ED50177
:100A0000C4010C2C04C0880F991FAA1FBB1F0A9495
:100A1000D2F78E219F21A023B12304C0B695A795BC
:100A200097958795CA94D2F70197A105B10529F446
:100A300082E060E04D2D0E940A0E2596DD2009F42B
:100A400065C1DA9457CF34E0D32EC0E0D0E021E086
:100A5000822E912CA12CB12CCC2E9E012C5F3F4FCD
:100A6000D501C401022E04C0880F991FAA1FBB1F05
:100A70000A94D2F78E219F21A023B12304C0B695FA
:100A8000A795979587952A95D2F70197A105B10566
:100A900029F484E060E04D2D0E940A0E9E012D5F36
:100AA0003F4FD501C401022E04C0880F991FAA1F11
:100AB000BB1F0A94D2F78E219F21A023B12304C02B
:100AC000B695A795979587952A95D2F70197A10591
:100AD000B10529F483E061E04D2D0E940A0E9E01CC
:100AE0002E5F3F4FD501C401022E04C0880F991F0D
:100AF000AA1FBB1F0A94D2F78E219F21A023B123E6
:100B000004C0B695A795979587952A95D2F7019732
:100B1000A105B10529F482E062E04D2D0E940A0E84
:100B20009E012F5F3F4FD501C401022E04C0880FE4
:100B3000991FAA1FBB1F0A94D2F78E219F21A023C1
:100B4000B12304C0B695A795979587952A95D2F7B6
:100B50000197A105B10529F481E063E04D2D0E94C4
:100B60000A0ED501C4010C2C04C0880F991FAA1FBE
:100B7000BB1F0A94D2F78E219F21A023B12304C06A
:100B8000B695A79597958795CA94D2F70197A10531
:100B9000B10529F480E064E04D2D0E940A0E2596EF
:100BA000DD2009F4B3C0DA9457CF94E0D92EC0E029
:100BB000D0E081E0882E912CA12CB12CCC2E9E016E
:100BC0002C5F3F4FD501C401022E04C0880F991F2E
:100BD000AA1FBB1F0A94D2F78E219F21A023B12305
:100BE00004C0B695A795979587952A95D2F7019752
:100BF000A105B10529F480E062E04D2D0E940A0EA6
:100C00009E012D5F3F4FD501C401022E04C0880F05
:100C1000991FAA1FBB1F0A94D2F78E219F21A023E0
:100C2000B12304C0B695A795979587952A95D2F7D5
:100C30000197A105B10529F481E062E04D2D0E94E4
:100C40000A0E9E012E5F3F4FD501C401022E04C043
:100C5000880F991FAA1FBB1F0A94D2F78E219F21CC
:100C6000A023B12304C0B695A795979587952A959B
:100C7000D2F70197A105B10529F482E062E04D2D7C
:100C80000E940A0E9E012F5F3F4FD501C401022E24
:100C900004C0880F991FAA1FBB1F0A94D2F78E2188
:100CA0009F21A023B12304C0B695A795979587955A
:100CB0002A95D2F70197A105B10529F483E062E0F6
:100CC0004D2D0E940A0ED501C4010C2C04C0880FC2
:100CD000991FAA1FBB1F0A94D2F78E219F21A02320
:100CE000B12304C0B695A79597958795CA94D2F776
:100CF0000197A105B10529F484E062E04D2D0E9421
:100D00000A0E2596DD2011F0DA9458CFDF91CF91AD
:100D10001F910F91FF90EF90DF90CF90BF90AF9019
:100D20009F908F9008956F927F928F929F92AF9233
:100D3000BF92DF92EF92FF920F931F93CF93DF93B7
:100D40003C017A018B01B4E0DB2EC0E0D0E0A1E0F1
:100D50008A2E912CA12CB12CD501C4010C2E04C0DB
:100D6000880F991FAA1FBB1F0A94D2F78E219F21BB
:100D7000A023B1230C2E04C0B695A795979587950F
:100D80000A94D2F70197A105B10531F484E0F3018B
:100D900065814D2D0E940A0E9E012F5F3F4FD501A8
:100DA000C401022E04C0880F991FAA1FBB1F0A94FA
:100DB000D2F78E219F21A023B12304C0B695A79519
:100DC000979587952A95D2F70197A105B10531F43A
:100DD00083E0F30165814D2D0E940A0E9E012E5F76
:100DE0003F4FD501C401022E04C0880F991FAA1FCE
:100DF000BB1F0A94D2F78E219F21A023B12304C0E8
:100E0000B695A795979587952A95D2F70197A1054D
:100E1000B10531F482E0F30165814D2D0E940A0E87
:100E20009E012D5F3F4FD501C401022E04C0880FE3
:100E3000991FAA1FBB1F0A94D2F78E219F21A023BE
:100E4000B12304C0B695A795979587952A95D2F7B3
:100E50000197A105B10531F481E0F30165814D2DC4
:100E60000E940A0E9E012C5F3F4FD501C401022E45
:100E700004C0880F991FAA1FBB1F0A94D2F78E21A6
:100E80009F21A023B12304C0B695A7959795879578
:100E90002A95D2F70197A105B10531F480E0F3015D
:100EA00065814D2D0E940A0E2596DD2011F0DA9401
:100EB00053CFDF91CF911F910F91FF90EF90DF9073
:100EC000BF90AF909F908F907F906F900895FC019E
:100ED0008481813231F0823239F4CF010E94EB02F9
:100EE0000895CF010E9493060895862F642F422F04
:100EF0000E940A0E0895FF920F931F93CF93DF93E2
:100F0000EC0165E070E080E090E00E94DA10F62EDF
:100F100065E070E080E090E00E94DA10062F10E0BB
:100F20008F2D602F412F0E940A0E6A817B816230D3
:100F3000710530F07695679580E090E00E9464112D
:100F40001F5F153069F76A817B8180E090E00E9425
:100F50006411DF91CF911F910F91FF9008951F931E
:100F6000162F842F0E94A10D812F90E00E94CC0D9E
:100F70001F9108954F925F926F927F928F929F92EE
:100F8000AF92BF92DF92EF92FF920F931F93DF9386
:100F9000CF93CDB7DEB7E3970FB6F894DEBF0FBEA1
:100FA000CDBF8C010E945611C8010E94CB02C8011E
:100FB0000E947F022E010894411C511C5AE0E52E2C
:100FC00051E0F52EE00EF11E820145E0842E912CB9
:100FD0003BE2A32EB12CAC0EBD1E0EC0F8019182D7
:100FE00080820E9456110E5F1F4F23E030E0E20E18
:100FF000F31E0A151B05E1F1F7018081992787FD92
:101000009095F80120813181820F931FF701218192
:10101000332727FD3095820F931F62E070E00E9416
:101020002614F8017183608366307105BCF6D9CF50
:10103000892F6D2D402F9BAB0E940A0E0F5F1F4F13
:101040009BA90A151B05A4F322E030E0E20EF31E73
:101050009F5F953031F0F701A080B18000E010E093
:10106000F0CFD394F5E0DF1661F0720190E0F3CF9A
:101070002AE0622E712C812C912C660E771E881E20
:10108000991E0E945611661577058805990510F47A
:10109000DD24EBCFE3960FB6F894DEBF0FBECDBFD5
:1010A000CF91DF911F910F91FF90EF90DF90BF9054
:1010B000AF909F908F907F906F905F904F9008952A
:1010C0008F929F92AF92BF92CF92DF92EF92FF9258
:1010D0000F931F93CF93DF93FC01028113810F5F66
:1010E0001F4F0E9456116B017C01CEEFDFEF4801CC
:1010F000AA24BB2427C0C330D1051CF084E090E0B3
:1011000002C0CE0102960E94DA0AFFEFCE3FDF074F
:1011100019F480E090E008C0C430D10519F484E0EF
:1011200090E002C0CE0101960E94B70ACE01C53000
:10113000D10514F084E090E097FF02C080E090E0D9
:101140000E94740A0E945611A7019601280D391DAC
:101150004A1D5B1D621773078407950760F20E94A2
:1011600056116B017C012196C530D10559F70E94BB
:1011700056117B018C01C4E0D0E027C0C330D105FB
:101180001CF084E090E002C0CE0102960E94740A36
:101190008FEFCE3FD80719F480E090E008C0C4304C
:1011A000D10519F484E090E002C0CE0101960E94BE
:1011B000B70ACE01C530D10514F084E090E097FF66
:1011C00002C080E090E00E94DA0A0E945611A80155
:1011D0009701280D391D4A1D5B1D6217730784078F
:1011E000950760F20E9456117B018C012197EFEF69
:1011F000CD3FDE0751F7DF91CF911F910F91FF9007
:10120000EF90DF90CF90BF90AF909F908F90089518
:101210006F927F928F929F92AF92BF92CF92DF9206
:10122000EF92FF920F931F93CF93DF93EC010A810C
:101230001B810F5F1F4F0E9456115B016C01EE2452
:10124000FF243801882499241AC08F81988502963A
:1012500065E070E00E9412140E94DA0A8F8198857E
:10126000019665E070E00E9412140E94B70A8F8117
:10127000988565E070E00E9412140E94740A0E9432
:101280005611A6019501260D371D481D591D6217DF
:10129000730784079507C8F20E9456115B016C0121
:1012A0000894E11CF11C8F819885019698878F83A3
:1012B00085E0E816F10419F7DF91CF911F910F91A6
:1012C000FF90EF90DF90CF90BF90AF909F908F9066
:1012D0007F906F9008956F927F928F929F92BF92AE
:1012E000CF92DF92EF92FF920F931F93FC01028146
:1012F00013810F5F1F4F0E9456116B017C01BB24AD
:1013000038018824992406C08FEC91E06B2D40E0D1
:101310000E941F0E0E945611A7019601260D371D2F
:10132000481D591D621773078407950768F30E94CB
:1013300056116B017C01B394F5E0BF1659F71F916C
:101340000F91FF90EF90DF90CF90BF909F908F9084
:101350007F906F9008956F927F928F929F92BF922D
:10136000CF92DF92EF92FF920F931F93CF93DF9371
:10137000EC010A811B810F5F1F4F0E9456116B0108
:101380007C01BB2438018824992406C086EB91E0B7
:101390006B2D4C810E941F0E0E945611A7019601D1
:1013A000260D371D481D591D6217730784079507C1
:1013B00068F30E9456116B017C01B39485E0B81666
:1013C00059F7DF91CF911F910F91FF90EF90DF9030
:1013D000CF90BF909F908F907F906F9008954F9285
:1013E0005F926F927F928F929F92AF92BF92CF92B5
:1013F000DF92EF92FF920F931F93CF93DF93EC0155
:101400002B01C42E0A811B810F5F1F4F0E945611B2
:101410009B01AC01DD244801AA24BB2448C01D82E5
:1014200032016D0C711C3EC0D301EC91E03219F415
:101430000E94620E29C08E2F80538A3050F4FF27FD
:10144000E7FDF095EE0FFF1FEE0FFF1FEA59FF4F6C
:101450000DC08E2F81548A31B8F4FF27E7FDF09537
:10146000EE0FFF1FEE0FFF1FE65BFF4F4081518124
:1014700062817381CE010E94670706C079018A01EB
:10148000E80CF91C0A1D1B1D0E9456116E157F05E4
:101490008007910748F20E9456119B01AC018D8193
:1014A0008F5F8D839D818E81981740F3D394DC14D8
:1014B00008F4B5CFDF91CF911F910F91FF90EF907E
:1014C000DF90CF90BF90AF909F908F907F906F9064
:1014D0005F904F900895FC0182E092E091838083B9
:1014E000CF010E940B1108950E94A10D80E060E0E1
:1014F0000E94570E81E060E00E94570E82E060E09B
:101500000E94570E83E060E00E94570E84E060E086
:101510000E94570E84E061E00E94570E84E062E072
:101520000E94570E84E063E00E94570E84E064E05E
:101530000E94570E80E064E00E94570E81E064E054
:101540000E94570E82E064E00E94570E83E064E040
:101550000E94570E80E061E00E94570E80E062E03A
:101560000E94570E80E063E00E94570E08950E948B
:10157000A10D86E090E00E94CC0D87E090E00E94F3
:10158000CC0D88E090E00E94CC0D8BE090E00E94B2
:10159000CC0D8DE090E00E94CC0D80E190E00E94A7
:1015A000CC0D81E190E00E94CC0D82E190E00E94A0
:1015B000CC0D08950E94A10D8CE090E00E94CC0D0E
:1015C00008950F931F9381E28093600380EF8093CF
:1015D0005F0304E314E0C80140E855E260E070E016
:1015E0000E94320FE0913404F09135040280F381BF
:1015F000E02DC80160E071E041E150E0099581E033
:101600000E9402128FE060E00E9427120E94760E74
:1016100006E112E0C80168E770E00E946302C801B9
:10162000609160030E945E0287E693E090936303FB
:101630008093620362E171E00E945102A091620313
:10164000B0916303FD0101900020E9F73197EA1B97
:10165000FB0BE09361031F910F9108958FE00E94AF
:10166000A112982F8093A4038091A503891779F084
:10167000992369F48091E801883F10F080EF01C060
:101680008F5F8093E8018091E80180935F039093DE
:10169000A5030895CF93DF93C0E0D0E084E394E006
:1016A0000E94B80F181619066CF4C032D10561F00B
:1016B00084E394E00E94E90FFE01EC59FC4F808323
:1016C0002196ECCF2297A4F08091640380935F036E
:1016D000809165038093600380916603809361032A
:1016E000809162039091630367E673E00E94510268
:1016F0000E942E0BDF91CF9108950E944A0B80919A
:101700005F03843FA9F1853F70F4813FF9F0823F88
:1017100020F4803F09F05CC010C0823FF9F0833FA5
:1017200009F056C020C0863F69F1863F30F1873FFF
:1017300071F1883F09F04CC02FC060916203709135
:10174000630386E192E04091610305C086E192E087
:1017500068E171E043E00E94EF09089586E192E0BC
:101760000E94BA07089586E192E00E946B090895ED
:1017700086E192E00E94AB09089586E192E00E9422
:101780007B07089586E192E00E940809089586E1AA
:1017900092E00E946008089580916003843261F4B1
:1017A000E0916203F091630386E192E06081418100
:1017B00022810E9475070895853251F4E0916203F9
:1017C000F0916303408186E192E0642F0E94AF07AD
:1017D00008951F920F920FB60F9211242F933F93EB
:1017E0004F935F936F937F938F939F93AF93BF9329
:1017F000EF93FF93E091AA03F091AB030995FF915A
:10180000EF91BF91AF919F918F917F916F915F9178
:101810004F913F912F910F900FBE0F901F901895F1
:101820002F923F924F925F926F927F928F929F92F0
:10183000AF92BF92CF92DF92EF92FF920F931F93DE
:10184000DF93CF93CDB7DEB766970FB6F894DEBFC0
:101850000FBECDBF9A8789877C876B873E872D8790
:1018600091E0C92ED12C02C0CC0CDD1C4A95E2F7C8
:1018700021E0C21621E0D2061CF02FEF3FEF47C156
:10188000860101501040E984FA84AB85BC8561E093
:1018900070E040E050E031C0960135952795C901D0
:1018A000840F951F08171907C4F3C901019748232E
:1018B0005923420F531F64177507CCF4F701918128
:1018C00029853A85240F351FF9018081F70181832D
:1018D000F901908311969C9111972B853C85240FDB
:1018E000351FF901808111968C93119790836F5F5A
:1018F0007F4F0894E11CF11C11960617170764F638
:1019000001E0402E512C27E030E038872F83F9C0CA
:1019100080E04D855E85452B09F081E051E085270B
:10192000682F70E07E836D833201660C771C8B8597
:101930009C85840D951D9A838983A985BA85A40DFC
:10194000B51DBC83AB831C8A1B8ACFC08B899C8945
:101950000F8002C0880F991F0A94E2F7FC01E85536
:10196000FF4F25913491422FFC01E859FF4F85919B
:101970009491282F2195ED85FE85EF2B09F0219577
:101980006D817E81672B11F04595259589849A8418
:101990008B899C89880E991EAB84BC84A80EB91EC5
:1019A0001C01EB80FC8009811A81A42FBB27A7FDB5
:1019B000B095B88BAF87E22FFF27E7FDF095FA8B44
:1019C000E98B7DC0D7018C91E82FFF27E7FDF095CB
:1019D000FE8BED8B2F8538892E9FA0012F9F500DF8
:1019E0003E9F500D1124B6E055954795BA95E1F705
:1019F000D8016C91772767FD7095E989FA89E69F90
:101A00009001E79F300DF69F300D1124A6E035952B
:101A10002795AA95E1F7A42FA170C90195958795FF
:101A2000A81B55954795A40F2170A21B4F85588977
:101A3000469F9001479F300D569F300D112476E050
:101A4000359527957A95E1F76D897E89E69FA00106
:101A5000E79F500DF69F500D112466E05595479570
:101A60006A95E1F7BA0175956795C90195958795CE
:101A7000680F2170620F4170640FF4019081F501CD
:101A800020814D815E81452B11F095952595892FFB
:101A90008A1BF7018083822F861BF80180839A0FAF
:101AA000D4019C93260FF5012083260C371CE60CED
:101AB000F71C060D171D860C971CA60CB71C2C14C2
:101AC0003D040CF47FCF2B893C892F5F3F4F3C8B2B
:101AD0002B8B49815A814F5F5F4F5A8349836B81BA
:101AE0007C816F5F7F4F7C836B838B899C8984159E
:101AF00095050CF42BCFAF81B8851197B887AF83CC
:101B000023014C145D040CF403CF20E030E0C90144
:101B100066960FB6F894DEBF0FBECDBFCF91DF91B2
:101B20001F910F91FF90EF90DF90CF90BF90AF90FB
:101B30009F908F907F906F905F904F903F902F90ED
:101B40000895DF92EF92FF920F931F93CF93DF934D
:101B5000D82E03EF11E0C0E0D0E0E82EFF24CE1530
:101B6000DF0519F084E08D1520F4F801808161E033
:101B700003C0F801808160E00E944D1221960E5F43
:101B80001F4FC530D10559F7DF91CF911F910F91AC
:101B9000FF90EF90DF900895CF92DF92EF92FF9247
:101BA0000F931F93CF93DF938931910514F088E150
:101BB00090E06C0197FF02C0CC24DD2499EEE92E61
:101BC00091E0F92E01E010E0C0E0D0E0B8016C2116
:101BD0007D210C2E02C0759567950A94E2F7F701F6
:101BE00080810E944D12000F111F219682E090E02B
:101BF000E80EF91EC530D10549F780E593EC0E9447
:101C0000BD11DF91CF911F910F91FF90EF90DF9069
:101C1000CF900895FF920F931F93F82E062F842FD5
:101C20000E94A10D85E0089F80011124C8018F0D3D
:101C3000911D0E94CC0D1F910F91FF9008950F935D
:101C40001F93CF93DF93062FEC0114E0888181303E
:101C500029F484E0602F412F0E940A0E898181308F
:101C600029F483E0602F412F0E940A0E8A8181307F
:101C700029F482E0602F412F0E940A0E8B8181306F
:101C800021F4602F412F0E940A0E8C81813029F4AB
:101C900080E0602F412F0E940A0E2596112311F03B
:101CA0001150D4CFDF91CF911F910F91089595E0FE
:101CB000699FB00111249B01280F311DC9010E94A9
:101CC000CC0D0895CF93DF93C3EFD1E0888160E01E
:101CD0000E944D1280E090E00E94CC0D229681E09F
:101CE000CD3FD80799F7DF91CF910895CF93DF9338
:101CF000C9EED1E0888161E00E942712888160E00E
:101D00000E944D12229681E0C33FD80799F7C3EF96
:101D1000D1E0888161E00E942712888160E00E9402
:101D20004D12229681E0CD3FD80799F78CE061E013
:101D30000E9427128CE061E00E944D12DF91CF914A
:101D4000089508951F920F920FB60F9211242F93AA
:101D50003F934F938F939F93EF93FF934091C600D0
:101D60002091EC033091ED032F5F3F4F2F733070C4
:101D70008091EE039091EF032817390759F0E09115
:101D8000EC03F091ED03E455FC4F40833093ED03F9
:101D90002093EC03FF91EF919F918F914F913F9191
:101DA0002F910F900FBE0F901F901895E091400457
:101DB000F0914104E05CFF4F81919191208131814C
:101DC000821B930B8F739070892B11F00E94A10ED0
:101DD00008951F920F920FB60F9211242F933F93E5
:101DE0004F935F936F937F938F939F93AF93BF9323
:101DF000EF93FF93209130043091310480913204AD
:101E0000909133042817390731F48091C1008F7DF8
:101E10008093C10016C0E0913204F0913304E05188
:101E2000FC4F40818091320490913304019660E42C
:101E300070E00E9426149093330480933204409300
:101E4000C600FF91EF91BF91AF919F918F917F91CC
:101E50006F915F914F913F912F910F900FBE0F9017
:101E60001F901895AF92BF92DF92EF92FF920F935F
:101E70001F93CF93DF93EC017A018B01DD24403077
:101E800081EE580780E0680780E0780711F0DD24D4
:101E9000D39491E0A92EB12CEC89FD89DD2069F065
:101EA000C5010E8C02C0880F991F0A94E2F7808347
:101EB00060E079E08DE390E005C0108260E874E8AE
:101EC0008EE190E0A80197010E9439142150304022
:101ED00040405040569547953795279580E12030F2
:101EE000380720F0DD2011F0DD24D6CFE889F9890C
:101EF0003083EA89FB892083EE89FF89408121E0D4
:101F000030E0C9010A8C02C0880F991F0A94E2F7D9
:101F1000482B4083EE89FF894081C9010B8C02C0A8
:101F2000880F991F0A94E2F7482B4083EE89FF89B6
:101F30004081C9010C8C02C0880F991F0A94E2F7F6
:101F4000482B4083EE89FF8980810D8C02C0220FCF
:101F5000331F0A94E2F7209528232083DF91CF9145
:101F60001F910F91FF90EF90DF90BF90AF90089579
:101F7000DC011C96ED91FC911D97E05CFF4F2191D7
:101F8000319180819181281B390B2F733070C901E9
:101F90000895DC011C96ED91FC911D97E05CFF4FCC
:101FA00020813181E054F040DF01AE5BBF4F8D9165
:101FB0009C9111972817390719F42FEF3FEF07C0AD
:101FC0008D919C91E80FF91F8081282F30E0C90185
:101FD0000895DC011C96ED91FC911D97E05CFF4F8C
:101FE00020813181E054F040DF01AE5BBF4F8D9125
:101FF0009C9111972817390719F42FEF3FEF10C064
:102000008D919C911197E80FF91F20818D919C91E2
:10201000119701968F73907011969C938E9330E078
:10202000C9010895FC0186859785DC01A05CBF4F3E
:10203000FC01EE5BFF4F2D913C91119780819181C6
:1020400028173907C1F70895CF93DF93EC01462F86
:10205000EE85FF85E05CFF4F80819181E054F04088
:10206000019660E470E00E9426149C01DF01AE5BE3
:10207000BF4F8D919C91119728173907D1F3E05CE0
:10208000FF4F80819181E054F040E80FF91F4083B9
:10209000EE85FF85E05CFF4F31832083EE89FF8969
:1020A000208181E090E00D8C02C0880F991F0A9476
:1020B000E2F7282B208381E090E0DF91CF91089513
:1020C000109237041092360488EE93E0A0E0B0E05E
:1020D0008093380490933904A0933A04B0933B045E
:1020E0008AE092E090933504809334048CEA93E084
:1020F000909341048093400480EF93E090934304D5
:102100008093420485EC90E09093450480934404CE
:1021100084EC90E0909347048093460480EC90E038
:10212000909349048093480481EC90E090934B0491
:1021300080934A0486EC90E090934D0480934C0485
:1021400084E080934E0483E080934F0487E0809383
:10215000500485E08093510481E0809352040895F7
:10216000CF92DF92EF92FF920F931F93CF93DF9363
:102170007C016B018A01C0E0D0E00FC0D6016D91F7
:102180006D01D701ED91FC910190F081E02DC70127
:102190000995C80FD91F015010400115110571F79D
:1021A000CE01DF91CF911F910F91FF90EF90DF90C3
:1021B000CF900895EF92FF920F931F937B018C01B4
:1021C000611571058105910529F420E030E040E0BA
:1021D00050E00BC00E944302A80197010E945B14CB
:1021E000AC01CB01DA019C01AD01B901CA011F911B
:1021F0000F91FF90EF900895CF93DF930E94C71146
:102200000E94E10AC6EDDEE00E947D0B2097E1F31B
:102210000E94D60EF9CF0E94980108951F920F9246
:102220000FB60F9211242F933F938F939F93AF93E9
:10223000BF938091570490915804A0915904B09194
:102240005A0430915B040196A11DB11D232F2D5F0F
:102250002D3720F02D570196A11DB11D20935B0451
:102260008093570490935804A0935904B0935A0450
:102270008091530490915404A0915504B091560458
:102280000196A11DB11D8093530490935404A09313
:102290005504B0935604BF91AF919F918F913F9198
:1022A0002F910F900FBE0F901F9018958FB7F89435
:1022B00020915704309158044091590450915A0488
:1022C0008FBFB901CA0108959B01AC017FB7F89493
:1022D0008091530490915404A0915504B0915604F8
:1022E00066B5A89B05C06F3F19F00196A11DB11DF1
:1022F0007FBFBA2FA92F982F8827860F911DA11D68
:10230000B11D62E0880F991FAA1FBB1F6A95D1F704
:10231000BC012DC0FFB7F8948091530490915404F0
:10232000A0915504B0915604E6B5A89B05C0EF3FB7
:1023300019F00196A11DB11DFFBFBA2FA92F982F2B
:1023400088278E0F911DA11DB11DE2E0880F991FF6
:10235000AA1FBB1FEA95D1F7861B970B885E934097
:10236000C8F2215030404040504068517C4F211508
:1023700031054105510571F60895019739F0880F2F
:10238000991F880F991F02970197F1F70895789484
:1023900084B5826084BD84B5816084BD85B582606A
:1023A00085BD85B5816085BDEEE6F0E08081816008
:1023B0008083E1E8F0E01082808182608083808108
:1023C00081608083E0E8F0E0808181608083E1EBE0
:1023D000F0E0808184608083E0EBF0E080818160C8
:1023E0008083EAE7F0E0808184608083808182607E
:1023F0008083808181608083808180688083109267
:10240000C10008958093FD010895982F8E3008F043
:102410009E5097708091FD018295880F880F807C77
:10242000892B80937C0080917A00806480937A006D
:1024300080917A0086FDFCCF209178004091790050
:10244000942F80E030E0282B392BC9010895482FC4
:1024500050E0CA01865A9E4FFC0124914A5B5E4FB0
:10246000FA0184918823C1F0E82FF0E0EE0FFF1FFE
:10247000E85DFE4FA591B491662341F49FB7F894AF
:102480008C91209582238C939FBF08959FB7F894D9
:102490008C91822B8C939FBF0895482F50E0CA01E6
:1024A00082599E4FFC012491CA01865A9E4FFC011D
:1024B00094914A5B5E4FFA013491332309F440C092
:1024C000222351F1233071F0243028F42130A1F07F
:1024D000223011F514C02630B1F02730C1F024307D
:1024E000D9F404C0809180008F7703C08091800070
:1024F0008F7D8093800010C084B58F7702C084B533
:102500008F7D84BD09C08091B0008F7703C080911A
:10251000B0008F7D8093B000E32FF0E0EE0FFF1F3F
:10252000EE5CFE4FA591B4912FB7F894662321F489
:102530008C919095892302C08C91892B8C932FBF0D
:102540000895682F70E0CB0182599E4FFC012491C1
:10255000CB01865A9E4FFC0144916A5B7E4FFB0182
:102560009491992319F420E030E03CC0222351F1EA
:10257000233071F0243028F42130A1F0223011F5FD
:1025800014C02630B1F02730C1F02430D9F404C093
:10259000809180008F7703C0809180008F7D809331
:1025A000800010C084B58F7702C084B58F7D84BD54
:1025B00009C08091B0008F7703C08091B0008F7DFB
:1025C0008093B000892F90E0880F991F845C9E4F04
:1025D000FC01A591B4918C9120E030E0842311F0AE
:1025E00021E030E0C901089504D06894B11190C091
:1025F000089573D088F09F5790F0B92F9927B7515D
:10260000A0F0D1F0660F771F881F991F1AF0BA95B6
:10261000C9F712C0B13081F07AD0B1E0089577C027
:10262000672F782F8827B85F39F0B93FCCF38695AC
:1026300077956795B395D9F73EF490958095709509
:1026400061957F4F8F4F9F4F0895E89409C097FB86
:102650003EF490958095709561957F4F8F4F9F4F79
:102660009923A9F0F92F96E9BB279395F6958795BD
:1026700077956795B795F111F8CFFAF4BB0F11F480
:1026800060FF1BC06F5F7F4F8F4F9F4F16C0882327
:1026900011F096E911C0772321F09EE8872F762F5D
:1026A00005C0662371F096E8862F70E060E02AF09E
:1026B0009A95660F771F881FDAF7880F969587958A
:1026C00097F908959FEF80EC089557FD9058440FB7
:1026D000551F59F05F3F71F04795880F97FB991F81
:1026E00061F09F3F79F0879508951216130614063E
:1026F000551FF2CF4695F1DF08C0161617061806CB
:10270000991FF1CF86957105610508940895E894A5
:10271000BB2766277727CB0197F9089511F40EF4AC
:10272000D1CF4AC0DADFD0F39923D9F3CEF39F5744
:10273000550B87FF51D056959795B0E020F4660F62
:10274000771F881FBB1F1F930F9300249001A001C8
:102750008001F001A0E80E0F1F1F0A1E511D601B13
:10276000710B8009B50B48F4600F711F801DB51FF8
:102770000E1B1F0B0A0A510907C02E0F3F1F4A1FCD
:102780000E0F1F1F0A1E511D660F771F881FBB1FCC
:10279000A695F795E795F8F60617170708065B075D
:1027A000211D311D411D0F911F91B901842F915899
:1027B000880F9695879508959F3F49F0915028F48A
:1027C000869577956795B7959F5F80389F4F880F5F
:1027D0009695879597F9089591505040660F771F09
:1027E000881FD2F70895629FD001739FF001829FE6
:1027F000E00DF11D649FE00DF11D929FF00D839F90
:10280000F00D749FF00D659FF00D9927729FB00D2C
:10281000E11DF91F639FB00DE11DF91FBD01CF013F
:1028200011240895AA1BBB1B51E107C0AA1FBB1F9F
:10283000A617B70710F0A61BB70B881F991F5A954C
:10284000A9F780959095BC01CD01089597FB092EBD
:1028500007260AD077FD04D0E5DF06D000201AF461
:10286000709561957F4F0895F6F7909581959F4FEC
:102870000895A1E21A2EAA1BBB1BFD010DC0AA1FC1
:10288000BB1FEE1FFF1FA217B307E407F50720F0D9
:10289000A21BB30BE40BF50B661F771F881F991F54
:1028A0001A9469F760957095809590959B01AC019D
:1028B000BD01CF01089597FB092E05260ED057FDC7
:1028C00004D0D7DF0AD0001C38F4509540953095DD
:1028D00021953F4F4F4F5F4F0895F6F790958095A4
:1028E000709561957F4F8F4F9F4F0895EE0FFF1F9B
:1028F0000590F491E02D09942F923F924F925F92B0
:102900006F927F928F929F92AF92BF92CF92DF92FF
:10291000EF92FF920F931F93CF93DF93CDB7DEB764
:10292000CA1BDB0B0FB6F894DEBF0FBECDBF0994F8
:102930002A88398848885F846E847D848C849B844F
:10294000AA84B984C884DF80EE80FD800C811B815D
:10295000AA81B981CE0FD11D0FB6F894DEBF0FBE8C
:10296000CDBFED01089511E0C6E8D1E004C0FE013D
:102970000E9478142296C838D107C9F7F894FFCF7F
:102980004C45442043554245207265762E20310D3A
:102990000A0052414C50480053303400200060047B
:1029A0000000010000002ED7E900A610E2001FFE83
:1029B000F0011F7EF801297D84003F7CF8013FFC77
:1029C000F8011F4208013FFEF8013F7EF80144C5AF
:1029D0001F012FFEF8003F84F0012FC6F8003FFCD6
:1029E000F0013FFC10003FF4F80131FE18018E1099
:1029F000E2001FC2E800A98C92002184F00171D787
:102A0000180171D61C012EC6E8003FFE10002FA54C
:102A1000F4013FFE14013F7CF8019F10420031C6D3
:102A2000F8013146450031D61D01511115015111F2
:102A300042001F11F1010000000000000100010030
:102A40000000000000010000000100010101000081
:102A5000010001000100010001010000000100016E
:102A60000001000000010000F00400030002000665
:102A70000005000B000A0009000800070001000023
:102A8000000058026B0A000000002410B010B80FBC
:062A9000E90FC90F12104E
:00000001FF
