:100000000C9464000C948C000C948C000C948C0068
:100010000C948C000C948C000C948C000C948C0030
:100020000C948C000C948C000C948C000C948C0020
:100030000C948C000C949E090C948C000C948C00F5
:100040000C94320D0C948C000C94C60A0C940D0B7D
:100050000C948C000C948C000C948C000C948C00F0
:100060000C948C000C948C000000000024002700ED
:100070002A0000000000250028002B0000000000DE
:1000800023002600290004040404040404040202DA
:100090000202020203030303030301020408102007
:1000A0004080010204081020010204081020000012
:1000B0000007000201000003040600000000000029
:1000C00000000702840C140211241FBECFEFD8E0F9
:1000D000DEBFCDBF11E0A0E0B1E0EAEDFEE102C07D
:1000E00005900D92AE3FB107D9F712E0AEEFB1E047
:1000F00001C01D92A43EB107E1F710E0C6ECD0E0CC
:1001000004C02297FE010E94250FC23CD107C9F707
:100110000E94200D0C94600F0C940000CF93DF938D
:10012000BC018230910510F462E070E0A091E2021F
:10013000B091E302ED01E0E0F0E040E050E021C0EA
:10014000888199818617970769F48A819B81309706
:1001500019F09383828304C09093E3028093E202B8
:10016000FE0134C06817790738F44115510519F0BC
:100170008417950708F4AC01FE018A819B819C01DC
:10018000E9012097E9F641155105A9F1CA01861B3D
:10019000970B049708F4BA01E0E0F0E02AC08D91D3
:1001A0009C91119784179507F9F46417750781F4EA
:1001B00012968D919C911397309719F093838283B7
:1001C00004C09093E3028093E202FD0132964CC09A
:1001D000CA01861B970BFD01E80FF91F619371930C
:1001E00002978D939C9340C0FD01828193819C0175
:1001F000D9011097A1F68091E0029091E102892B3C
:1002000041F480910801909109019093E10280935B
:10021000E00240910A0150910B014115510541F452
:100220004DB75EB78091060190910701481B590BAD
:100230002091E0023091E102CA01821B930B8617E4
:10024000970780F0AB014E5F5F4F8417950750F022
:10025000420F531F5093E1024093E002F901619372
:10026000719302C0E0E0F0E0CF01DF91CF910895FB
:10027000CF93DF93009709F450C0EC0122971B82C3
:100280001A82A091E202B091E302109709F140E0D6
:1002900050E0AC17BD0708F1BB83AA83FE01219192
:1002A0003191E20FF31FAE17BF0779F48D919C9146
:1002B0001197280F391F2E5F3F4F398328831296DD
:1002C0008D919C9113979B838A834115510571F4FD
:1002D000D093E302C093E20220C012968D919C91CC
:1002E0001397AD01009711F0DC01D3CFFA01D3834E
:1002F000C28321913191E20FF31FCE17DF0769F41A
:1003000088819981280F391F2E5F3F4FFA01318371
:1003100020838A819B8193838283DF91CF9108958B
:10032000A0E0B0E0E6E9F1E00C94310FEC01A88028
:10033000B980CA80DB80A114B104C104D10441F4A6
:1003400084E2A82E89EDB82E8BE5C82E87E0D82E42
:10035000C601B5012DE133EF41E050E00E94F40EFB
:1003600027EA31E440E050E00E94A00E7B018C01BE
:10037000C601B5012DE133EF41E050E00E94F40EDB
:10038000CA01B9012CEE34EF4FEF5FEF0E94A00ECF
:100390006E0D7F1D801F911F97FF04C0615070403C
:1003A00080409048688379838A839B839B01AC015A
:1003B0005F77B901CA01CDB7DEB7EAE00C944D0F03
:1003C0000E94900108958CE091E00E9490010895B0
:1003D00060930C0170930D0180930E0190930F01B7
:1003E0000895FB01DC0101900D920020E1F70895D2
:1003F000FC018AEE91E0918380830895FC0185E001
:10040000868364830895FC017383628308958AEE72
:1004100091E09093FF018093FE0184E690E0909339
:1004200001028093000208958AEE91E09093FF010B
:100430008093FE0108958F929F92AF92BF92CF92C8
:10044000DF92EF92FF920F931F93CF93DF937A0186
:100450008B01FC018581823009F473C1833030F453
:10046000882359F0813009F081C3B9C0833009F481
:100470001AC2843009F07AC3C8C2F4E0DF2EC0E0AB
:10048000D0E0E1E08E2E912CA12CB12CCC2E9E013F
:100490002C5F3F4FD501C401022E04C0880F991F65
:1004A000AA1FBB1F0A94D2F78E219F21A023B1233C
:1004B00004C0B695A795979587952A95D2F7019789
:1004C000A105B10529F484E062E04D2D0E942E0AB9
:1004D0009E012D5F3F4FD501C401022E04C0880F3D
:1004E000991FAA1FBB1F0A94D2F78E219F21A02318
:1004F000B12304C0B695A795979587952A95D2F70D
:100500000197A105B10529F483E062E04D2D0E9419
:100510002E0A9E012E5F3F4FD501C401022E04C05A
:10052000880F991FAA1FBB1F0A94D2F78E219F2103
:10053000A023B12304C0B695A795979587952A95D2
:10054000D2F70197A105B10529F482E062E04D2DB3
:100550000E942E0A9E012F5F3F4FD501C401022E3B
:1005600004C0880F991FAA1FBB1F0A94D2F78E21BF
:100570009F21A023B12304C0B695A7959795879591
:100580002A95D2F70197A105B10529F481E062E02F
:100590004D2D0E942E0AD501C4010C2C04C0880FD9
:1005A000991FAA1FBB1F0A94D2F78E219F21A02357
:1005B000B12304C0B695A79597958795CA94D2F7AD
:1005C0000197A105B10529F480E062E04D2D0E945C
:1005D0002E0A2596DD2009F4C9C2DA9457CF74E0BB
:1005E000D72EC0E0D0E061E0862E912CA12CB12C5A
:1005F000CC2E9E012C5F3F4FD501C401022E04C0BA
:10060000880F991FAA1FBB1F0A94D2F78E219F2122
:10061000A023B12304C0B695A795979587952A95F1
:10062000D2F70197A105B10529F484E064E04D2DCE
:100630000E942E0A9E012D5F3F4FD501C401022E5C
:1006400004C0880F991FAA1FBB1F0A94D2F78E21DE
:100650009F21A023B12304C0B695A79597958795B0
:100660002A95D2F70197A105B10529F483E063E04B
:100670004D2D0E942E0A9E012E5F3F4FD501C401D1
:10068000022E04C0880F991FAA1FBB1F0A94D2F71D
:100690008E219F21A023B12304C0B695A7959795DD
:1006A00087952A95D2F70197A105B10529F482E033
:1006B00062E04D2D0E942E0A9E012F5F3F4FD50113
:1006C000C401022E04C0880F991FAA1FBB1F0A94E1
:1006D000D2F78E219F21A023B12304C0B695A79500
:1006E000979587952A95D2F70197A105B10529F429
:1006F00081E061E04D2D0E942E0AD501C4010C2C31
:1007000004C0880F991FAA1FBB1F0A94D2F78E211D
:100710009F21A023B12304C0B695A79597958795EF
:10072000CA94D2F70197A105B10529F480E060E0F1
:100730004D2D0E942E0A2596DD2009F417C2DA9469
:1007400057CF54E0D52EC0E0D0E041E0842E912C6C
:10075000A12CB12CCC2E9E012C5F3F4FD501C401A2
:10076000022E04C0880F991FAA1FBB1F0A94D2F73C
:100770008E219F21A023B12304C0B695A7959795FC
:1007800087952A95D2F70197A105B10529F482E052
:1007900064E04D2D0E942E0A9E012D5F3F4FD50132
:1007A000C401022E04C0880F991FAA1FBB1F0A9400
:1007B000D2F78E219F21A023B12304C0B695A7951F
:1007C000979587952A95D2F70197A105B10529F448
:1007D00082E063E04D2D0E942E0A9E012E5F3F4F66
:1007E000D501C401022E04C0880F991FAA1FBB1F88
:1007F0000A94D2F78E219F21A023B12304C0B6957D
:10080000A795979587952A95D2F70197A105B105E8
:1008100029F482E062E04D2D0E942E0A9E012F5F96
:100820003F4FD501C401022E04C0880F991FAA1F93
:10083000BB1F0A94D2F78E219F21A023B12304C0AD
:10084000B695A795979587952A95D2F70197A10513
:10085000B10529F482E061E04D2D0E942E0AD501F8
:10086000C4010C2C04C0880F991FAA1FBB1F0A9437
:10087000D2F78E219F21A023B12304C0B695A7955E
:1008800097958795CA94D2F70197A105B10529F4E8
:1008900082E060E04D2D0E942E0A2596DD2009F4AD
:1008A00065C1DA9457CF34E0D32EC0E0D0E021E028
:1008B000822E912CA12CB12CCC2E9E012C5F3F4F6F
:1008C000D501C401022E04C0880F991FAA1FBB1FA7
:1008D0000A94D2F78E219F21A023B12304C0B6959C
:1008E000A795979587952A95D2F70197A105B10508
:1008F00029F484E060E04D2D0E942E0A9E012D5FB8
:100900003F4FD501C401022E04C0880F991FAA1FB2
:10091000BB1F0A94D2F78E219F21A023B12304C0CC
:10092000B695A795979587952A95D2F70197A10532
:10093000B10529F483E061E04D2D0E942E0A9E014D
:100940002E5F3F4FD501C401022E04C0880F991FAE
:10095000AA1FBB1F0A94D2F78E219F21A023B12387
:1009600004C0B695A795979587952A95D2F70197D4
:10097000A105B10529F482E062E04D2D0E942E0A06
:100980009E012F5F3F4FD501C401022E04C0880F86
:10099000991FAA1FBB1F0A94D2F78E219F21A02363
:1009A000B12304C0B695A795979587952A95D2F758
:1009B0000197A105B10529F481E063E04D2D0E9466
:1009C0002E0AD501C4010C2C04C0880F991FAA1F40
:1009D000BB1F0A94D2F78E219F21A023B12304C00C
:1009E000B695A79597958795CA94D2F70197A105D3
:1009F000B10529F480E064E04D2D0E942E0A259671
:100A0000DD2009F4B3C0DA9457CF94E0D92EC0E0CA
:100A1000D0E081E0882E912CA12CB12CCC2E9E010F
:100A20002C5F3F4FD501C401022E04C0880F991FCF
:100A3000AA1FBB1F0A94D2F78E219F21A023B123A6
:100A400004C0B695A795979587952A95D2F70197F3
:100A5000A105B10529F480E062E04D2D0E942E0A27
:100A60009E012D5F3F4FD501C401022E04C0880FA7
:100A7000991FAA1FBB1F0A94D2F78E219F21A02382
:100A8000B12304C0B695A795979587952A95D2F777
:100A90000197A105B10529F481E062E04D2D0E9486
:100AA0002E0A9E012E5F3F4FD501C401022E04C0C5
:100AB000880F991FAA1FBB1F0A94D2F78E219F216E
:100AC000A023B12304C0B695A795979587952A953D
:100AD000D2F70197A105B10529F482E062E04D2D1E
:100AE0000E942E0A9E012F5F3F4FD501C401022EA6
:100AF00004C0880F991FAA1FBB1F0A94D2F78E212A
:100B00009F21A023B12304C0B695A79597958795FB
:100B10002A95D2F70197A105B10529F483E062E097
:100B20004D2D0E942E0AD501C4010C2C04C0880F43
:100B3000991FAA1FBB1F0A94D2F78E219F21A023C1
:100B4000B12304C0B695A79597958795CA94D2F717
:100B50000197A105B10529F484E062E04D2D0E94C2
:100B60002E0A2596DD2011F0DA9458CFDF91CF912F
:100B70001F910F91FF90EF90DF90CF90BF90AF90BB
:100B80009F908F9008954F925F926F927F928F9275
:100B90009F92AF92BF92CF92DF92EF92FF920F930C
:100BA0001F93CF93DF932C015A016B0114E0E12EC8
:100BB00004E010E0B1E06B2E712C812C912C2AC046
:100BC000D401C3010C2E04C0880F991FAA1FBB1F9C
:100BD0000A94D2F78A219B21AC21BD210C2E04C09E
:100BE000B695A795979587950A94D2F70197A10591
:100BF000B10531F48F2DF20165814E2D0E942E0A30
:100C0000FA942197FFEFFF16D9F60B5F1F4FEE20E6
:100C100029F0EA94E801A4E0FA2ED2CFDF91CF9137
:100C20001F910F91FF90EF90DF90CF90BF90AF900A
:100C30009F908F907F906F905F904F900895FC01F0
:100C40008481813231F0823239F4CF010E941B025B
:100C50000895CF010E94C3050895862F642F422F67
:100C60000E942E0A0895FF920F931F93CF93DF9354
:100C7000EC0165E070E080E090E00E94FE0CF62E52
:100C800065E070E080E090E00E94FE0C062F10E02E
:100C90008F2D602F412F0E942E0A6A817B81623046
:100CA000710530F07695679580E090E00E94880DA0
:100CB0001F5F153069F76A817B8180E090E00E94B8
:100CC000880DDF91CF911F910F91FF9008951F9391
:100CD000162F842F0E94C509812F90E00E94F009F1
:100CE0001F9108958F929F92AF92BF92CF92DF9201
:100CF000EF92FF920F931F93CF93DF93FC0102813A
:100D000013810F5F1F4F0E947A0D6B017C01CEEFA4
:100D1000DFEF4801AA24BB2427C0C330D1051CF053
:100D200084E090E002C0CE0102960E94D908FFEF55
:100D3000CE3FDF0719F480E090E008C0C430D10551
:100D400019F484E090E002C0CE0101960E94B6083A
:100D5000CE01C530D10514F084E090E097FF02C0C9
:100D600080E090E00E9473080E947A0DA70196012E
:100D7000280D391D4A1D5B1D6217730784079507EF
:100D800060F20E947A0D6B017C012196C530D1057D
:100D900059F70E947A0D7B018C01C4E0D0E027C096
:100DA000C330D1051CF084E090E002C0CE01029671
:100DB0000E9473088FEFCE3FD80719F480E090E0CF
:100DC00008C0C430D10519F484E090E002C0CE011F
:100DD00001960E94B608CE01C530D10514F084E01A
:100DE00090E097FF02C080E090E00E94D9080E9446
:100DF0007A0DA8019701280D391D4A1D5B1D621748
:100E000073078407950760F20E947A0D7B018C01BD
:100E10002197EFEFCD3FDE0751F7DF91CF911F9183
:100E20000F91FF90EF90DF90CF90BF90AF909F9089
:100E30008F9008952F923F924F925F926F927F9280
:100E40008F929F92AF92BF92CF92DF92EF92FF92DA
:100E50000F931F93CF93DF933C010E947A0D5B01A8
:100E60006C01C0E0D0E0F301228133812F5F3F4F5E
:100E7000CE01029665E070E00E94BF0E1C01CE011B
:100E8000019665E070E00E94BF0E2C01CE0165E086
:100E900070E00E94BF0E4C01790100E010E0EA0C06
:100EA000FB1C0C1D1D1D09C0C1010E94D908C201F7
:100EB0000E94B608C4010E9473080E947A0D6E1544
:100EC0007F058007910780F30E947A0D5B016C011A
:100ED0002196C9CF6F927F928F929F92BF92CF92AD
:100EE000DF92EF92FF920F931F93FC010281138117
:100EF0000F5F1F4F0E947A0D6B017C01BB243801EC
:100F00008824992406C089EB91E06B2D40E00E9473
:100F1000430A0E947A0DA7019601260D371D481D30
:100F2000591D621773078407950768F30E947A0DAD
:100F30006B017C01B394F5E0BF1659F71F910F9137
:100F4000FF90EF90DF90CF90BF909F908F907F9019
:100F50006F9008956F927F928F929F92BF92CF92DF
:100F6000DF92EF92FF920F931F93CF93DF93EC01E9
:100F70000A811B810F5F1F4F0E947A0D6B017C015C
:100F8000BB2438018824992406C080EA91E06B2DA7
:100F90004C810E94430A0E947A0DA7019601260DFA
:100FA000371D481D591D621773078407950768F39D
:100FB0000E947A0D6B017C01B39485E0B81659F755
:100FC000DF91CF911F910F91FF90EF90DF90CF9025
:100FD000BF909F908F907F906F9008954F925F92F7
:100FE0006F927F928F929F92AF92BF92CF92DF9239
:100FF000EF92FF920F931F93CF93DF93EC012B019E
:10100000C42E0A811B810F5F1F4F0E947A0D9B0126
:10101000AC01DD244801AA24BB2448C01D82320152
:101020006D0C711C3EC0D301EC91E03219F40E94AA
:10103000860A29C08E2F80538A3050F4FF27E7FD9F
:10104000F095EE0FFF1FEE0FFF1FE05BFF4F0DC08F
:101050008E2F81548A31B8F4FF27E7FDF095EE0F0B
:10106000FF1FEE0FFF1FEC5CFF4F4081518162813B
:101070007381CE010E941F0606C079018A01E80C27
:10108000F91C0A1D1B1D0E947A0D6E157F05800735
:10109000910748F20E947A0D9B01AC018D818F5F10
:1010A0008D839D818E81981740F3D394DC1408F4CE
:1010B000B5CFDF91CF911F910F91FF90EF90DF900F
:1010C000CF90BF90AF909F908F907F906F905F90E8
:1010D0004F900895FC018AEE91E091838083CF01C7
:1010E0000E942F0D08950E94C50980E060E00E94D3
:1010F0007B0A81E060E00E947B0A82E060E00E945F
:101100007B0A83E060E00E947B0A84E060E00E944A
:101110007B0A84E061E00E947B0A84E062E00E9436
:101120007B0A84E063E00E947B0A84E064E00E9422
:101130007B0A80E064E00E947B0A81E064E00E9418
:101140007B0A82E064E00E947B0A83E064E00E9404
:101150007B0A80E061E00E947B0A80E062E00E94FE
:101160007B0A80E063E00E947B0A08950E94C50923
:1011700086E090E00E94F00987E090E00E94F0098C
:1011800088E090E00E94F0098BE090E00E94F00976
:101190008DE090E00E94F00980E190E00E94F0096B
:1011A00081E190E00E94F00982E190E00E94F00964
:1011B00008950E94C5098CE090E00E94F00908950E
:1011C000CF93DF93C0E0D0E088EB92E00E94DC0B8D
:1011D000181619066CF4C032D10561F088EB92E064
:1011E0000E940D0CFE01E65FFD4F80832196ECCF3F
:1011F000229794F080910A028093050280910B025D
:101200008093060280910C02809307028DE092E0A9
:101210009093090280930802DF91CF9108950E9474
:10122000E00880910502833F39F1843F40F4813F1B
:10123000C9F0823FE0F4803F09F049C008C0853F13
:1012400029F1853FF0F0863F09F041C024C060914C
:101250000802709109028EEF91E0409107020E940E
:10126000EE0708958EEF91E00E946A0708958EEFD1
:1012700091E00E94AA0708958EEF91E00E94330644
:1012800008958EEF91E00E94720608958EEF91E02E
:101290000E941A07089580910602843261F4E09159
:1012A0000802F09109028EEF91E060814181228174
:1012B0000E942D060895853251F4E0910802F091C4
:1012C000090240818EEF91E0642F0E946706089525
:1012D0000F931F9382E28093060281EF80930502B1
:1012E00088EB92E040E855E260E070E00E94560B27
:1012F0000E949A0A0EEF11E0C80166E970E00E94B0
:101300000302C801609106020E94FE01809108025A
:101310009091090260E071E00E94F101A091080241
:10132000B0910902FD0101900020E9F73197EA1B15
:10133000FB0BE09307021F910F9108951F920F92EC
:101340000FB60F9211242F933F934F935F936F9398
:101350007F938F939F93AF93BF93EF93FF93E0910E
:101360002E02F0912F020995FF91EF91BF91AF915D
:101370009F918F917F916F915F914F913F912F91AD
:101380000F900FBE0F901F901895DF92EF92FF9273
:101390000F931F93CF93DF93D82E0CED11E0C0E095
:1013A000D0E0E82EFF24CE15DF0519F084E08D157E
:1013B00020F4F801808161E003C0F801808160E0E1
:1013C0000E944C0E21960E5F1F4FC530D10559F774
:1013D000DF91CF911F910F91FF90EF90DF900895D3
:1013E000CF92DF92EF92FF920F931F93CF93DF93F1
:1013F0008931910514F088E190E06C0197FF02C0FB
:10140000CC24DD2492EDE92E91E0F92E01E010E0EC
:10141000C0E0D0E0B8016C217D210C2E02C0759592
:1014200067950A94E2F7F70180810E944C0E000F45
:10143000111F219682E090E0E80EF91EC530D1051B
:1014400049F78EE190E00E94E10DDF91CF911F916D
:101450000F91FF90EF90DF90CF900895FF920F9340
:101460001F93F82E062F842F0E94C50985E0089F40
:1014700080011124C8018F0D911D0E94F0091F9158
:101480000F91FF9008950F931F93CF93DF93062F33
:10149000EC0114E08881813029F484E0602F412F31
:1014A0000E942E0A8981813029F483E0602F412F28
:1014B0000E942E0A8A81813029F482E0602F412F18
:1014C0000E942E0A8B81813021F4602F412F0E94CF
:1014D0002E0A8C81813029F480E0602F412F0E94F8
:1014E0002E0A2596112311F01150D4CFDF91CF9100
:1014F0001F910F91089595E0699FB00111249B0100
:10150000280F311DC9010E94F0090895CF93DF9380
:10151000CCEDD1E0888160E00E944C0E80E090E04C
:101520000E94F009229681E0C63ED80799F7DF9124
:10153000CF910895CF93DF93C2EDD1E0888161E030
:101540000E94260E888160E00E944C0E229681E067
:10155000CC3DD80799F7CCEDD1E0888161E00E94BD
:10156000260E888160E00E944C0E229681E0C63EE5
:10157000D80799F78CE061E00E94260E8CE061E0CC
:101580000E944C0EDF91CF91089508951F920F9203
:101590000FB60F9211242F933F934F938F939F93E6
:1015A000EF93FF934091C600209170023091710239
:1015B0002F5F3F4F2F7330708091720290917302B2
:1015C0002817390759F0E0917002F0917102E05D3F
:1015D000FD4F40833093710220937002FF91EF9191
:1015E0009F918F914F913F912F910F900FBE0F9030
:1015F0001F901895E091C402F091C502E05CFF4F86
:101600008191919120813181821B930B8F73907016
:10161000892B11F00E94C50A08951F920F920FB6F0
:101620000F9211242F933F934F935F936F937F9368
:101630008F939F93AF93BF93EF93FF932091B40247
:101640003091B5028091B6029091B7022817390700
:1016500031F48091C1008F7D8093C10016C0E0916C
:10166000B602F091B702EC58FD4F40818091B6026E
:101670009091B702019660E470E00E94BF0E9093D3
:10168000B7028093B6024093C600FF91EF91BF91DD
:10169000AF919F918F917F916F915F914F913F910A
:1016A0002F910F900FBE0F901F901895AF92BF9281
:1016B000DF92EF92FF920F931F93CF93DF93EC0192
:1016C0007A018B01DD24403081EE580780E0680705
:1016D00080E0780711F0DD24D39491E0A92EB12C9D
:1016E000EC89FD89DD2069F0C5010E8C02C0880FF0
:1016F000991F0A94E2F7808360E079E08DE390E03F
:1017000005C0108260E874E88EE190E0A8019701BE
:101710000E94D20E2150304040405040569547958F
:101720003795279580E12030380720F0DD2011F033
:10173000DD24D6CFE889F9893083EA89FB892083C3
:10174000EE89FF89408121E030E0C9010A8C02C0A6
:10175000880F991F0A94E2F7482B4083EE89FF898E
:101760004081C9010B8C02C0880F991F0A94E2F7CF
:10177000482B4083EE89FF894081C9010C8C02C04F
:10178000880F991F0A94E2F7482B4083EE89FF895E
:1017900080810D8C02C0220F331F0A94E2F720953E
:1017A00028232083DF91CF911F910F91FF90EF901D
:1017B000DF90BF90AF900895DC011C96ED91FC91F5
:1017C0001D97E05CFF4F2191319180819181281B11
:1017D000390B2F733070C9010895DC011C96ED910F
:1017E000FC911D97E05CFF4F20813181E054F04077
:1017F000DF01AE5BBF4F8D919C9111972817390780
:1018000019F42FEF3FEF07C08D919C91E80FF91F5E
:101810008081282F30E0C9010895DC011C96ED91EC
:10182000FC911D97E05CFF4F20813181E054F04036
:10183000DF01AE5BBF4F8D919C911197281739073F
:1018400019F42FEF3FEF10C08D919C911197E80F85
:10185000F91F20818D919C91119701968F73907043
:1018600011969C938E9330E0C9010895FC01868502
:101870009785DC01A05CBF4FFC01EE5BFF4F2D9113
:101880003C9111978081918128173907C1F70895FC
:10189000CF93DF93EC01462FEE85FF85E05CFF4F91
:1018A00080819181E054F040019660E470E00E94F4
:1018B000BF0E9C01DF01AE5BBF4F8D919C911197D4
:1018C00028173907D1F3E05CFF4F80819181E05404
:1018D000F040E80FF91F4083EE85FF85E05CFF4F85
:1018E00031832083EE89FF89208181E090E00D8C97
:1018F00002C0880F991F0A94E2F7282B208381E009
:1019000090E0DF91CF9108951092BB021092BA023D
:1019100088EE93E0A0E0B0E08093BC029093BD021B
:10192000A093BE02B093BF0282EF91E09093B90200
:101930008093B80280E392E09093C5028093C40242
:1019400084E792E09093C7028093C60285EC90E012
:101950009093C9028093C80284EC90E09093CB02EC
:101960008093CA0280EC90E09093CD028093CC02E9
:1019700081EC90E09093CF028093CE0286EC90E0D1
:101980009093D1028093D00284E08093D20283E0CE
:101990008093D30287E08093D40285E08093D502C0
:1019A00081E08093D6020895CF92DF92EF92FF926A
:1019B0000F931F93CF93DF937C016B018A01C0E0EB
:1019C000D0E00FC0D6016D916D01D701ED91FC9172
:1019D0000190F081E02DC7010995C80FD91F015072
:1019E00010400115110571F7CE01DF91CF911F91C4
:1019F0000F91FF90EF90DF90CF900895EF92FF92BC
:101A00000F931F937B018C01611571058105910571
:101A100029F420E030E040E050E00BC00E94E301F8
:101A2000A80197010E94F40EAC01CB01DA019C01E0
:101A3000AD01B901CA011F910F91FF90EF90089578
:101A4000CF93DF930E94EB0D0E946809CAEFDAE0A2
:101A50000E940F092097E1F30E94FA0AF9CF0E9431
:101A6000380108951F920F920FB60F9211242F93F1
:101A70003F938F939F93AF93BF938091DB0290919D
:101A8000DC02A091DD02B091DE023091DF0201960E
:101A9000A11DB11D232F2D5F2D3720F02D5701964D
:101AA000A11DB11D2093DF028093DB029093DC0225
:101AB000A093DD02B093DE028091D7029091D8020C
:101AC000A091D902B091DA020196A11DB11D8093B7
:101AD000D7029093D802A093D902B093DA02BF91B3
:101AE000AF919F918F913F912F910F900FBE0F90CB
:101AF0001F9018958FB7F8942091DB023091DC028B
:101B00004091DD025091DE028FBFB901CA010895F4
:101B10009B01AC017FB7F8948091D7029091D802D5
:101B2000A091D902B091DA0266B5A89B05C06F3FBB
:101B300019F00196A11DB11D7FBFBA2FA92F982FB3
:101B40008827860F911DA11DB11D62E0880F991F86
:101B5000AA1FBB1F6A95D1F7BC012DC0FFB7F8942F
:101B60008091D7029091D802A091D902B091DA0267
:101B7000E6B5A89B05C0EF3F19F00196A11DB11D68
:101B8000FFBFBA2FA92F982F88278E0F911DA11D57
:101B9000B11DE2E0880F991FAA1FBB1FEA95D1F77C
:101BA000861B970B885E9340C8F22150304040401E
:101BB000504068517C4F211531054105510571F6A2
:101BC0000895019739F0880F991F880F991F029780
:101BD0000197F1F70895789484B5826084BD84B547
:101BE000816084BD85B5826085BD85B5816085BD18
:101BF000EEE6F0E0808181608083E1E8F0E0108231
:101C0000808182608083808181608083E0E8F0E071
:101C1000808181608083E1EBF0E08081846080835B
:101C2000E0EBF0E0808181608083EAE7F0E0808192
:101C300084608083808182608083808181608083F2
:101C40008081806880831092C1000895482F50E001
:101C5000CA0186569F4FFC0124914A575F4FFA01F3
:101C600084918823C1F0E82FF0E0EE0FFF1FE859C0
:101C7000FF4FA591B491662341F49FB7F8948C91DE
:101C8000209582238C939FBF08959FB7F8948C91E1
:101C9000822B8C939FBF0895482F50E0CA01825534
:101CA0009F4FFC012491CA0186569F4FFC019491DD
:101CB0004A575F4FFA013491332309F440C022237D
:101CC00051F1233071F0243028F42130A1F022307A
:101CD00011F514C02630B1F02730C1F02430D9F40A
:101CE00004C0809180008F7703C0809180008F7D39
:101CF0008093800010C084B58F7702C084B58F7D3B
:101D000084BD09C08091B0008F7703C08091B0007E
:101D10008F7D8093B000E32FF0E0EE0FFF1FEE58B1
:101D2000FF4FA591B4912FB7F894662321F48C91BD
:101D30009095892302C08C91892B8C932FBF089595
:101D4000629FD001739FF001829FE00DF11D649F9F
:101D5000E00DF11D929FF00D839FF00D749FF00D2B
:101D6000659FF00D9927729FB00DE11DF91F639FCC
:101D7000B00DE11DF91FBD01CF011124089597FB9E
:101D8000092E07260AD077FD04D049D006D00020BE
:101D90001AF4709561957F4F0895F6F790958195A7
:101DA0009F4F0895A1E21A2EAA1BBB1BFD010DC077
:101DB000AA1FBB1FEE1FFF1FA217B307E407F507FB
:101DC00020F0A21BB30BE40BF50B661F771F881FD7
:101DD000991F1A9469F760957095809590959B016D
:101DE000AC01BD01CF01089597FB092E05260ED049
:101DF00057FD04D0D7DF0AD0001C38F45095409529
:101E0000309521953F4F4F4F5F4F0895F6F79095CE
:101E10008095709561957F4F8F4F9F4F0895AA1BB6
:101E2000BB1B51E107C0AA1FBB1FA617B70710F0C5
:101E3000A61BB70B881F991F5A95A9F780959095F7
:101E4000BC01CD010895EE0FFF1F0590F491E02D28
:101E500009942F923F924F925F926F927F928F924E
:101E60009F92AF92BF92CF92DF92EF92FF920F9329
:101E70001F93CF93DF93CDB7DEB7CA1BDB0B0FB633
:101E8000F894DEBF0FBECDBF09942A8839884888F0
:101E90005F846E847D848C849B84AA84B984C88486
:101EA000DF80EE80FD800C811B81AA81B981CE0F7D
:101EB000D11D0FB6F894DEBF0FBECDBFED01089562
:101EC00010E0C6ECD0E004C0FE010E94250F22966F
:0A1ED000C83CD107C9F7F894FFCF12
:101EDA0052414C5048002000E4020000010000007A
:101EEA002ED7E900A610E2001FFEF0011F7EF801BE
:101EFA00297D84003F7CF8013FFCF8011F4208015C
:101F0A003FFEF8013F7EF80144C51F012FFEF8008D
:101F1A003F84F0012FC6F8003FFCF0013FFC10009F
:101F2A003FF4F80131FE18018E10E2001FC2E800EA
:101F3A00A98C92002184F00171D7180171D61C0175
:101F4A002EC6E8003FFE10002FA5F4013FFE140143
:101F5A003F7CF8019F10420031C6F8013146450026
:101F6A0031D61D0151111501511142001F11F10104
:101F7A000000000000000100010000000000000154
:101F8A000000000100010101000001000100010040
:101F9A000100010100000001000100010000000130
:101FAA000000040003000200060005000B000A00FE
:101FBA0009000800070000000000F8016A08000094
:0E1FCA000000480CD40CDC0B0D0CED0B360C9B
:00000001FF
