:100000000C94C4000C94EC000C94EC000C94EC00E8
:100010000C94EC000C94EC000C94EC000C94EC00B0
:100020000C94EC000C94EC000C94EC000C94EC00A0
:100030000C94EC000C94960B0C94EC000C94EC00DB
:100040000C94BB100C94EC000C944F0E0C94960E78
:100050000C94EC000C94EC000C94EC000C94EC0070
:100060000C94EC000C94EC00000306090C0F121524
:10007000181C1F2225282B2E303336393C3F414493
:1000800047494C4E515355585A5C5E6062646668ED
:100090006A6C6D6F70727375767778797A7B7C7C19
:1000A0007D7E7E7F7F7F7F7F7F7F7F7F7F7F7E7E66
:1000B0007D7C7C7B7A79787776757372706F6D6CE6
:1000C0006A68666462605E5C5A585553514E4C498A
:1000D0004744413F3C393633302E2B2825221F1C04
:1000E0001815120F0C09060300FDFAF7F4F1EEEBF8
:1000F000E8E4E1DEDBD8D5D2D0CDCAC7C4C1BFBCED
:10010000B9B7B4B2AFADABA8A6A4A2A09E9C9A9872
:1001100096949391908E8D8B8A8988878685848426
:100120008382828181818181000000002400270078
:100130002A0000000000250028002B00000000001D
:100140002300260029000404040404040404020219
:100150000202020203030303030301020408102046
:100160004080010204081020010204081020000051
:100170000007000201000003040600000000000068
:10018000000067020D10740211241FBECFEFD8E0EB
:10019000DEBFCDBF11E0A0E0B1E0EAEDF8E202C0C1
:1001A00005900D92AA3FB107D9F714E0AAEFB1E08C
:1001B00001C01D92A234B107E1F711E0C6E8D1E019
:1001C00004C02297FE010E942514C238D107C9F746
:1001D0000E94A9100C9460140C940000CF93DF933C
:1001E000BC018230910510F462E070E0A0914004FF
:1001F000B0914104ED01E0E0F0E040E050E021C0CA
:10020000888199818617970769F48A819B81309745
:1002100019F09383828304C0909341048093400437
:10022000FE0134C06817790738F44115510519F0FB
:100230008417950708F4AC01FE018A819B819C011B
:10024000E9012097E9F641155105A9F1CA01861B7C
:10025000970B049708F4BA01E0E0F0E02AC08D9112
:100260009C91119784179507F9F46417750781F429
:1002700012968D919C911397309719F093838283F6
:1002800004C09093410480934004FD0132964CC019
:10029000CA01861B970BFD01E80FF91F619371934B
:1002A00002978D939C9340C0FD01828193819C01B4
:1002B000D9011097A1F680913E0490913F04892BBB
:1002C00041F480911A0190911B0190933F04809317
:1002D0003E0440911C0150911D014115510541F40E
:1002E0004DB75EB78091180190911901481B590BC9
:1002F00020913E0430913F04CA01821B930B861764
:10030000970780F0AB014E5F5F4F8417950750F061
:10031000420F531F50933F0440933E04F9016193F1
:10032000719302C0E0E0F0E0CF01DF91CF9108953A
:10033000CF93DF93009709F450C0EC0122971B8202
:100340001A82A0914004B0914104109709F140E055
:1003500050E0AC17BD0708F1BB83AA83FE012191D1
:100360003191E20FF31FAE17BF0779F48D919C9185
:100370001197280F391F2E5F3F4F3983288312961C
:100380008D919C9113979B838A834115510571F43C
:10039000D0934104C093400420C012968D919C914B
:1003A0001397AD01009711F0DC01D3CFFA01D3838D
:1003B000C28321913191E20FF31FCE17DF0769F459
:1003C00088819981280F391F2E5F3F4FFA013183B1
:1003D00020838A819B8193838283DF91CF910895CB
:1003E000A0E0B0E0E6EFF1E00C943114EC01A8805D
:1003F000B980CA80DB80A114B104C104D10441F4E6
:1004000084E2A82E89EDB82E8BE5C82E87E0D82E81
:10041000C601B5012DE133EF41E050E00E94F41335
:1004200027EA31E440E050E00E94A0137B018C01F8
:10043000C601B5012DE133EF41E050E00E94F41315
:10044000CA01B9012CEE34EF4FEF5FEF0E94A01309
:100450006E0D7F1D801F911F97FF04C0615070407B
:1004600080409048688379838A839B839B01AC0199
:100470005F77B901CA01CDB7DEB7EAE00C944D143D
:100480000E94F00108958EE191E00E94F00108952C
:1004900060931E0170931F018093200190932101AE
:1004A0000895FB01DC0101900D920020E1F7089511
:1004B000FC0185EE91E0918380830895FC0185E045
:1004C000868364830895FC0173836283089585EEB7
:1004D00091E09093FB018093FA0184E690E0909381
:1004E000FD018093FC01089585EE91E09093FB015E
:1004F0008093FA0108950F931F93CF93DF938C019C
:1005000089579F4F095F1F4FB80147E050E020E037
:1005100030E00E94BD0BE801CF57DF4F01E010E053
:100520002881332727FD3095C058D0408881C05896
:10053000DF4F992787FD9095889FB001899F700DA7
:10054000989F700D1124C901889F9001899F300DDB
:10055000989F300D1124620F731F882777FD8095B7
:10056000982F0E94D4120E943F130E94A112688308
:10057000C058DF4F68830F5F1F4FCF57D040003404
:10058000110571F6DF91CF911F910F9108950F938F
:100590001F93CF93DF93EC0100E010E080E00E9416
:1005A000B211C957DF4F64E070E00E94BF1360587A
:1005B0006883C758D0401F820F5F1F4F21960038B5
:1005C000110561F7DF91CF911F910F9108958F92DF
:1005D0009F92AF92BF92CF92DF92EF92FF920F93D2
:1005E0001F93CF93DF937A018B01FC0185818230C9
:1005F00009F473C1833030F4882359F0813009F055
:1006000081C3B9C0833009F41AC2843009F07AC3B7
:10061000C8C2F4E0DF2EC0E0D0E0E1E08E2E912CE5
:10062000A12CB12CCC2E9E012C5F3F4FD501C401D3
:10063000022E04C0880F991FAA1FBB1F0A94D2F76D
:100640008E219F21A023B12304C0B695A79597952D
:1006500087952A95D2F70197A105B10529F484E081
:1006600062E04D2D0E94B70D9E012D5F3F4FD501D9
:10067000C401022E04C0880F991FAA1FBB1F0A9431
:10068000D2F78E219F21A023B12304C0B695A79550
:10069000979587952A95D2F70197A105B10529F479
:1006A00083E062E04D2D0E94B70D9E012E5F3F4F0B
:1006B000D501C401022E04C0880F991FAA1FBB1FB9
:1006C0000A94D2F78E219F21A023B12304C0B695AE
:1006D000A795979587952A95D2F70197A105B1051A
:1006E00029F482E062E04D2D0E94B70D9E012F5F3C
:1006F0003F4FD501C401022E04C0880F991FAA1FC5
:10070000BB1F0A94D2F78E219F21A023B12304C0DE
:10071000B695A795979587952A95D2F70197A10544
:10072000B10529F481E062E04D2D0E94B70DD5019D
:10073000C4010C2C04C0880F991FAA1FBB1F0A9468
:10074000D2F78E219F21A023B12304C0B695A7958F
:1007500097958795CA94D2F70197A105B10529F419
:1007600080E062E04D2D0E94B70D2596DD2009F452
:10077000C9C2DA9457CF74E0D72EC0E0D0E061E070
:10078000862E912CA12CB12CCC2E9E012C5F3F4F9C
:10079000D501C401022E04C0880F991FAA1FBB1FD8
:1007A0000A94D2F78E219F21A023B12304C0B695CD
:1007B000A795979587952A95D2F70197A105B10539
:1007C00029F484E064E04D2D0E94B70D9E012D5F59
:1007D0003F4FD501C401022E04C0880F991FAA1FE4
:1007E000BB1F0A94D2F78E219F21A023B12304C0FE
:1007F000B695A795979587952A95D2F70197A10564
:10080000B10529F483E063E04D2D0E94B70D9E01F0
:100810002E5F3F4FD501C401022E04C0880F991FDF
:10082000AA1FBB1F0A94D2F78E219F21A023B123B8
:1008300004C0B695A795979587952A95D2F7019705
:10084000A105B10529F482E062E04D2D0E94B70DAB
:100850009E012F5F3F4FD501C401022E04C0880FB7
:10086000991FAA1FBB1F0A94D2F78E219F21A02394
:10087000B12304C0B695A795979587952A95D2F789
:100880000197A105B10529F481E061E04D2D0E9499
:10089000B70DD501C4010C2C04C0880F991FAA1FE5
:1008A000BB1F0A94D2F78E219F21A023B12304C03D
:1008B000B695A79597958795CA94D2F70197A10504
:1008C000B10529F480E060E04D2D0E94B70D25961A
:1008D000DD2009F417C2DA9457CF54E0D52EC0E0DA
:1008E000D0E041E0842E912CA12CB12CCC2E9E0185
:1008F0002C5F3F4FD501C401022E04C0880F991F01
:10090000AA1FBB1F0A94D2F78E219F21A023B123D7
:1009100004C0B695A795979587952A95D2F7019724
:10092000A105B10529F482E064E04D2D0E94B70DC8
:100930009E012D5F3F4FD501C401022E04C0880FD8
:10094000991FAA1FBB1F0A94D2F78E219F21A023B3
:10095000B12304C0B695A795979587952A95D2F7A8
:100960000197A105B10529F482E063E04D2D0E94B5
:10097000B70D9E012E5F3F4FD501C401022E04C06A
:10098000880F991FAA1FBB1F0A94D2F78E219F219F
:10099000A023B12304C0B695A795979587952A956E
:1009A000D2F70197A105B10529F482E062E04D2D4F
:1009B0000E94B70D9E012F5F3F4FD501C401022E4B
:1009C00004C0880F991FAA1FBB1F0A94D2F78E215B
:1009D0009F21A023B12304C0B695A795979587952D
:1009E0002A95D2F70197A105B10529F482E061E0CB
:1009F0004D2D0E94B70DD501C4010C2C04C0880FE9
:100A0000991FAA1FBB1F0A94D2F78E219F21A023F2
:100A1000B12304C0B695A79597958795CA94D2F748
:100A20000197A105B10529F482E060E04D2D0E94F7
:100A3000B70D2596DD2009F465C1DA9457CF34E06F
:100A4000D32EC0E0D0E021E0822E912CA12CB12C3D
:100A5000CC2E9E012C5F3F4FD501C401022E04C055
:100A6000880F991FAA1FBB1F0A94D2F78E219F21BE
:100A7000A023B12304C0B695A795979587952A958D
:100A8000D2F70197A105B10529F484E060E04D2D6E
:100A90000E94B70D9E012D5F3F4FD501C401022E6C
:100AA00004C0880F991FAA1FBB1F0A94D2F78E217A
:100AB0009F21A023B12304C0B695A795979587954C
:100AC0002A95D2F70197A105B10529F483E061E0E9
:100AD0004D2D0E94B70D9E012E5F3F4FD501C401E1
:100AE000022E04C0880F991FAA1FBB1F0A94D2F7B9
:100AF0008E219F21A023B12304C0B695A795979579
:100B000087952A95D2F70197A105B10529F482E0CE
:100B100062E04D2D0E94B70D9E012F5F3F4FD50122
:100B2000C401022E04C0880F991FAA1FBB1F0A947C
:100B3000D2F78E219F21A023B12304C0B695A7959B
:100B4000979587952A95D2F70197A105B10529F4C4
:100B500081E063E04D2D0E94B70DD501C4010C2C3E
:100B600004C0880F991FAA1FBB1F0A94D2F78E21B9
:100B70009F21A023B12304C0B695A795979587958B
:100B8000CA94D2F70197A105B10529F480E064E089
:100B90004D2D0E94B70D2596DD2009F4B3C0DA94DF
:100BA00057CF94E0D92EC0E0D0E081E0882E912C80
:100BB000A12CB12CCC2E9E012C5F3F4FD501C4013E
:100BC000022E04C0880F991FAA1FBB1F0A94D2F7D8
:100BD0008E219F21A023B12304C0B695A795979598
:100BE00087952A95D2F70197A105B10529F480E0F0
:100BF00062E04D2D0E94B70D9E012D5F3F4FD50144
:100C0000C401022E04C0880F991FAA1FBB1F0A949B
:100C1000D2F78E219F21A023B12304C0B695A795BA
:100C2000979587952A95D2F70197A105B10529F4E3
:100C300081E062E04D2D0E94B70D9E012E5F3F4F77
:100C4000D501C401022E04C0880F991FAA1FBB1F23
:100C50000A94D2F78E219F21A023B12304C0B69518
:100C6000A795979587952A95D2F70197A105B10584
:100C700029F482E062E04D2D0E94B70D9E012F5FA6
:100C80003F4FD501C401022E04C0880F991FAA1F2F
:100C9000BB1F0A94D2F78E219F21A023B12304C049
:100CA000B695A795979587952A95D2F70197A105AF
:100CB000B10529F483E062E04D2D0E94B70DD50106
:100CC000C4010C2C04C0880F991FAA1FBB1F0A94D3
:100CD000D2F78E219F21A023B12304C0B695A795FA
:100CE00097958795CA94D2F70197A105B10529F484
:100CF00084E062E04D2D0E94B70D2596DD2011F0B5
:100D0000DA9458CFDF91CF911F910F91FF90EF9020
:100D1000DF90CF90BF90AF909F908F9008956F928B
:100D20007F928F929F92AF92BF92DF92EF92FF924B
:100D30000F931F93CF93DF933C017A018B01B4E0B3
:100D4000DB2EC0E0D0E0A1E08A2E912CA12CB12CAA
:100D5000D501C4010C2E04C0880F991FAA1FBB1F08
:100D60000A94D2F78E219F21A023B1230C2E04C018
:100D7000B695A795979587950A94D2F70197A105FF
:100D8000B10531F484E0F30165814D2D0E94B70D6A
:100D90009E012F5F3F4FD501C401022E04C0880F72
:100DA000991FAA1FBB1F0A94D2F78E219F21A0234F
:100DB000B12304C0B695A795979587952A95D2F744
:100DC0000197A105B10531F483E0F30165814D2D53
:100DD0000E94B70D9E012E5F3F4FD501C401022E28
:100DE00004C0880F991FAA1FBB1F0A94D2F78E2137
:100DF0009F21A023B12304C0B695A7959795879509
:100E00002A95D2F70197A105B10531F482E0F301EB
:100E100065814D2D0E94B70D9E012D5F3F4FD5017D
:100E2000C401022E04C0880F991FAA1FBB1F0A9479
:100E3000D2F78E219F21A023B12304C0B695A79598
:100E4000979587952A95D2F70197A105B10531F4B9
:100E500081E0F30165814D2D0E94B70D9E012C5F4D
:100E60003F4FD501C401022E04C0880F991FAA1F4D
:100E7000BB1F0A94D2F78E219F21A023B12304C067
:100E8000B695A795979587952A95D2F70197A105CD
:100E9000B10531F480E0F30165814D2D0E94B70D5D
:100EA0002596DD2011F0DA9453CFDF91CF911F9179
:100EB0000F91FF90EF90DF90BF90AF909F908F9039
:100EC0007F906F900895FC018481813231F08232ED
:100ED00039F4CF010E94E7020895CF010E948F06E6
:100EE0000895862F642F422F0E94B70D0895FF9218
:100EF0000F931F93CF93DF93EC0165E070E080E0E8
:100F000090E00E948710F62E65E070E080E090E0AF
:100F10000E948710062F10E08F2D602F412F0E9416
:100F2000B70D6A817B816230710530F076956795E7
:100F300080E090E00E9411111F5F153069F76A810F
:100F40007B8180E090E00E941111DF91CF911F9191
:100F50000F91FF9008951F93162F842F0E944E0D1E
:100F6000812F90E00E94790D1F9108954F925F921A
:100F70006F927F928F929F92AF92BF92DF92EF9289
:100F8000FF920F931F93DF93CF93CDB7DEB7E39715
:100F90000FB6F894DEBF0FBECDBF8C010E940311C7
:100FA000C8010E94C702C8010E947B022E0108945A
:100FB000411C511C58E0E52E51E0F52EE00EF11ECB
:100FC000820144E0842E912C3BE2A32EB12CAC0E86
:100FD000BD1E0EC0F801918280820E9403110E5F37
:100FE0001F4F23E030E0E20EF31E0A151B05E1F16E
:100FF000F7018081992787FD9095F8012081318143
:10100000820F931FF7012181332727FD3095820F2F
:10101000931F62E070E00E94BF13F8017183608348
:1010200065307105BCF6D9CF892F6D2D402F9BAB54
:101030000E94B70D0F5F1F4F9BA90A151B05A4F354
:1010400022E030E0E20EF31E9F5F953031F0F701B1
:10105000A080B18000E010E0F0CFD394F5E0DF167F
:1010600061F0720190E0F3CF2BE0622E712C812CA5
:10107000912C660E771E881E991E0E94031166151C
:1010800077058805990510F4DD24EBCFE3960FB6BC
:10109000F894DEBF0FBECDBFCF91DF911F910F91AE
:1010A000FF90EF90DF90BF90AF909F908F907F90D8
:1010B0006F905F904F9008958F929F92AF92BF92E2
:1010C000CF92DF92EF92FF920F931F93CF93DF9314
:1010D000FC01028113810F5F1F4F0E9403116B01FE
:1010E0007C01CEEFDFEF4801AA24BB2427C0C33028
:1010F000D1051CF084E090E002C0CE0102960E946F
:101100009A0AFFEFCE3FDF0719F480E090E008C0B5
:10111000C430D10519F484E090E002C0CE010196FC
:101120000E94770ACE01C530D10514F084E090E02A
:1011300097FF02C080E090E00E94340A0E940311F1
:10114000A7019601280D391D4A1D5B1D6217730703
:101150008407950760F20E9403116B017C012196C0
:10116000C530D10559F70E9403117B018C01C4E001
:10117000D0E027C0C330D1051CF084E090E002C06D
:10118000CE0102960E94340A8FEFCE3FD80719F4A1
:1011900080E090E008C0C430D10519F484E090E00C
:1011A00002C0CE0101960E94770ACE01C530D1055A
:1011B00014F084E090E097FF02C080E090E00E948D
:1011C0009A0A0E940311A8019701280D391D4A1D92
:1011D0005B1D621773078407950760F20E94031175
:1011E0007B018C012197EFEFCD3FDE0751F7DF91B7
:1011F000CF911F910F91FF90EF90DF90CF90BF9014
:10120000AF909F908F9008952F923F924F925F9250
:101210006F927F928F929F92AF92BF92CF92DF9206
:10122000EF92FF920F931F93CF93DF93FC01028104
:1012300013810F5F1F4F0E9403116B017C01C0E0FF
:10124000D0E04801AA24BB2418C0C1010E949A0A18
:10125000C2010E94770AC3010E94340A0E9403114E
:101260006E157F058007910780F30E9403116B01C3
:101270007C012196C730D105D9F0CE01029665E0F8
:1012800070E00E94BF131C01CE01019665E070E082
:101290000E94BF132C01CE0165E070E00E94BF13D5
:1012A0003C0187017601E80CF91C0A1D1B1DD6CFF5
:1012B000DF91CF911F910F91FF90EF90DF90CF9032
:1012C000BF90AF909F908F907F906F905F904F9066
:1012D0003F902F9008956F927F928F929F92BF922E
:1012E000CF92DF92EF92FF920F931F93CF93DF93F2
:1012F000EC010A811B810F5F1F4F0E9403116B01DC
:101300007C01BB2438018824992406C082EB91E03B
:101310006B2D4C810E94CC0D0E940311A7019601F8
:10132000260D371D481D591D621773078407950741
:1013300068F30E9403116B017C01B39485E0B81639
:1013400059F7DF91CF911F910F91FF90EF90DF90B0
:10135000CF90BF909F908F907F906F9008954F9205
:101360005F926F927F928F929F92AF92BF92CF9235
:10137000DF92EF92FF920F931F93CF93DF93EC01D5
:101380002B01C42E0A811B810F5F1F4F0E94031186
:101390009B01AC01DD244801AA24BB2448C01D8266
:1013A00032016D0C711C3EC0D301EC91E03219F496
:1013B0000E940F0E29C08E2F80538A3050F4FF27D1
:1013C000E7FDF095EE0FFF1FEE0FFF1FEE59FF4FE9
:1013D0000DC08E2F81548A31B8F4FF27E7FDF095B8
:1013E000EE0FFF1FEE0FFF1FEA5BFF4F40815181A1
:1013F00062817381CE010E94630706C079018A0170
:10140000E80CF91C0A1D1B1D0E9403116E157F05B7
:101410008007910748F20E9403119B01AC018D8166
:101420008F5F8D839D818E81981740F3D394DC1458
:1014300008F4B5CFDF91CF911F910F91FF90EF90FE
:10144000DF90CF90BF90AF909F908F907F906F90E4
:101450005F904F900895FC0185EE91E09183808329
:10146000CF010E94B81008950E944E0D80E060E008
:101470000E94040E81E060E00E94040E82E060E0C1
:101480000E94040E83E060E00E94040E84E060E0AD
:101490000E94040E84E061E00E94040E84E062E099
:1014A0000E94040E84E063E00E94040E84E064E085
:1014B0000E94040E80E064E00E94040E81E064E07B
:1014C0000E94040E82E064E00E94040E83E064E067
:1014D0000E94040E80E061E00E94040E80E062E061
:1014E0000E94040E80E063E00E94040E08950E94B2
:1014F0004E0D86E090E00E94790D87E090E00E941A
:10150000790D88E090E00E94790D8BE090E00E94D8
:10151000790D8DE090E00E94790D80E190E00E94CD
:10152000790D81E190E00E94790D82E190E00E94C6
:10153000790D08950E944E0D8CE090E00E94790D87
:1015400008950F931F9381E28093420380EF80936D
:10155000410306E114E0C80140E855E260E070E0B4
:101560000E94DF0EE0911604F09117040280F381CF
:10157000E02DC80160E071E041E150E0099581E0B3
:101580000E94AF118FE060E00E94D4110E94230EF0
:101590000AEF11E0C80168E770E00E946302C80129
:1015A000609142030E945E0289E493E090934503B8
:1015B0008093440362E171E00E945102A0914403D0
:1015C000B0914503FD0101900020E9F73197EA1B36
:1015D000FB0BE09343031F910F9108958FE00E944E
:1015E0004E12982F8093860380918703891779F094
:1015F000992369F48091CB01863F11F480EF01C0FB
:101600008F5F8093CB018091CB01809341039093B6
:1016100087030895CF93DF93C0E0D0E086E194E0A4
:101620000E94650F181619066CF4C032D10561F0DE
:1016300086E194E00E94960FFE01EA5BFC4F8083F6
:101640002196ECCF2297A4F080914603809341032A
:101650008091470380934203809148038093430322
:10166000809144039091450369E473E00E94510224
:101670000E94EE0ADF91CF9108950E940A0B80919B
:101680004103833F39F1843F40F4813FC9F0823FF9
:10169000E0F4803F09F049C008C0853F29F1853F4B
:1016A000F0F0863F09F041C024C06091440370917E
:1016B00045038AEF91E0409143030E94AF090895EA
:1016C0008AEF91E00E94B60708958AEF91E00E94A8
:1016D0006B0908958AEF91E00E94770708958AEFD9
:1016E00091E00E94040908958AEF91E00E945C084D
:1016F000089580914203843261F4E0914403F091B3
:1017000045038AEF91E06081418122810E94710747
:101710000895853251F4E0914403F09145034081EE
:101720008AEF91E0642F0E94AB0708951F920F92F9
:101730000FB60F9211242F933F934F935F936F93A4
:101740007F938F939F93AF93BF93EF93FF93E0911A
:101750008C03F0918D030995FF91EF91BF91AF91AB
:101760009F918F917F916F915F914F913F912F91B9
:101770000F900FBE0F901F9018952F923F924F928F
:101780005F926F927F928F929F92AF92BF92CF9211
:10179000DF92EF92FF920F931F93DF93CF93CDB71A
:1017A000DEB766970FB6F894DEBF0FBECDBF9A873F
:1017B00089877C876B873E872D8791E0C92ED12C46
:1017C00002C0CC0CDD1C4A95E2F721E0C21621E0F4
:1017D000D2061CF02FEF3FEF47C1860101501040A9
:1017E000E984FA84AB85BC8561E070E040E050E0BC
:1017F00031C0960135952795C901840F951F0817AB
:101800001907C4F3C901019748235923420F531FF5
:1018100064177507CCF4F701918129853A85240F67
:10182000351FF9018081F7018183F90190831196B9
:101830009C9111972B853C85240F351FF9018081E0
:1018400011968C93119790836F5F7F4F0894E11CE2
:10185000F11C11960617170764F601E0402E512C73
:1018600027E030E038872F83F9C080E04D855E8522
:10187000452B09F081E051E08527682F70E07E83D9
:101880006D833201660C771C8B859C85840D951DBC
:101890009A838983A985BA85A40DB51DBC83AB83C2
:1018A0001C8A1B8ACFC08B899C890F8002C0880F3D
:1018B000991F0A94E2F7FC01E855FF4F25913491F6
:1018C000422FFC01E859FF4F85919491282F2195D3
:1018D000ED85FE85EF2B09F021956D817E81672BCB
:1018E00011F04595259589849A848B899C89880E69
:1018F000991EAB84BC84A80EB91E1C01EB80FC8031
:1019000009811A81A42FBB27A7FDB095B88BAF879B
:10191000E22FFF27E7FDF095FA8BE98B7DC0D70119
:101920008C91E82FFF27E7FDF095FE8BED8B2F853F
:1019300038892E9FA0012F9F500D3E9F500D1124DE
:10194000B6E055954795BA95E1F7D8016C917727A0
:1019500067FD7095E989FA89E69F9001E79F300D50
:10196000F69F300D1124A6E035952795AA95E1F74D
:10197000A42FA170C90195958795A81B55954795EA
:10198000A40F2170A21B4F855889469F9001479F45
:10199000300D569F300D112476E0359527957A95B8
:1019A000E1F76D897E89E69FA001E79F500DF69FC4
:1019B000500D112466E0559547956A95E1F7BA01F7
:1019C00075956795C90195958795680F2170620F88
:1019D0004170640FF4019081F50120814D815E8199
:1019E000452B11F095952595892F8A1BF70180834A
:1019F000822F861BF80180839A0FD4019C93260FB7
:101A0000F5012083260C371CE60CF71C060D171D6C
:101A1000860C971CA60CB71C2C143D040CF47FCF2D
:101A20002B893C892F5F3F4F3C8B2B8B49815A81FF
:101A30004F5F5F4F5A8349836B817C816F5F7F4F1C
:101A40007C836B838B899C89841595050CF42BCF43
:101A5000AF81B8851197B887AF8323014C145D041B
:101A60000CF403CF20E030E0C90166960FB6F8947D
:101A7000DEBF0FBECDBFCF91DF911F910F91FF90C1
:101A8000EF90DF90CF90BF90AF909F908F907F901E
:101A90006F905F904F903F902F900895DF92EF925C
:101AA000FF920F931F93CF93DF93D82E06ED11E093
:101AB000C0E0D0E0E82EFF24CE15DF0519F084E069
:101AC0008D1520F4F801808161E003C0F801808168
:101AD00060E00E94FA1121960E5F1F4FC530D105BC
:101AE00059F7DF91CF911F910F91FF90EF90DF9009
:101AF0000895CF92DF92EF92FF920F931F93CF93AF
:101B0000DF938931910514F088E190E06C0197FF33
:101B100002C0CC24DD249CECE92E91E0F92E01E0FA
:101B200010E0C0E0D0E0B8016C217D210C2E02C095
:101B3000759567950A94E2F7F70180810E94FA1182
:101B4000000F111F219682E090E0E80EF91EC530CB
:101B5000D10549F780E593EC0E946A11DF91CF919E
:101B60001F910F91FF90EF90DF90CF900895FF921B
:101B70000F931F93F82E062F842F0E944E0D85E0A1
:101B8000089F80011124C8018F0D911D0E94790DBD
:101B90001F910F91FF9008950F931F93CF93DF93A1
:101BA000062FEC0114E08881813029F484E0602F55
:101BB000412F0E94B70D8981813029F483E0602F85
:101BC000412F0E94B70D8A81813029F482E0602F75
:101BD000412F0E94B70D8B81813021F4602F412F5E
:101BE0000E94B70D8C81813029F480E0602F412F55
:101BF0000E94B70D2596112311F01150D4CFDF911B
:101C0000CF911F910F91089595E0699FB001112424
:101C10009B01280F311DC9010E94790D0895CF93B2
:101C2000DF93C6EDD1E0888160E00E94FA1180E088
:101C300090E00E94790D229681E0C03ED80799F786
:101C4000DF91CF910895CF93DF93CCECD1E08881E1
:101C500061E00E94D411888160E00E94FA1122960E
:101C600081E0C63DD80799F7C6EDD1E0888161E0F3
:101C70000E94D411888160E00E94FA11229681E0CE
:101C8000C03ED80799F78CE061E00E94D4118CE047
:101C900061E00E94FA11DF91CF91089508951F929B
:101CA0000F920FB60F9211242F933F934F938F9360
:101CB0009F93EF93FF934091C6002091CE03309104
:101CC000CF032F5F3F4F2F7330708091D0039091DF
:101CD000D1032817390759F0E091CE03F091CF03D3
:101CE000E257FC4F40833093CF032093CE03FF9104
:101CF000EF919F918F914F913F912F910F900FBE38
:101D00000F901F901895E0912204F0912304E05C5D
:101D1000FF4F8191919120813181821B930B8F73B1
:101D20009070892B11F00E944E0E08951F920F9211
:101D30000FB60F9211242F933F934F935F936F939E
:101D40007F938F939F93AF93BF93EF93FF932091D4
:101D500012043091130480911404909115042817F3
:101D6000390731F48091C1008F7D8093C10016C086
:101D7000E0911404F0911504EE52FC4F40818091E3
:101D8000140490911504019660E470E00E94BF1362
:101D900090931504809314044093C600FF91EF9133
:101DA000BF91AF919F918F917F916F915F914F9173
:101DB0003F912F910F900FBE0F901F901895AF92EB
:101DC000BF92DF92EF92FF920F931F93CF93DF9317
:101DD000EC017A018B01DD24403081EE580780E070
:101DE000680780E0780711F0DD24D39491E0A92EF4
:101DF000B12CEC89FD89DD2069F0C5010E8C02C093
:101E0000880F991F0A94E2F7808360E079E08DE300
:101E100090E005C0108260E874E88EE190E0A801CF
:101E200097010E94D21321503040404050405695B7
:101E300047953795279580E12030380720F0DD2041
:101E400011F0DD24D6CFE889F9893083EA89FB894E
:101E50002083EE89FF89408121E030E0C9010A8CAE
:101E600002C0880F991F0A94E2F7482B4083EE893D
:101E7000FF894081C9010B8C02C0880F991F0A9409
:101E8000E2F7482B4083EE89FF894081C9010C8C21
:101E900002C0880F991F0A94E2F7482B4083EE890D
:101EA000FF8980810D8C02C0220F331F0A94E2F754
:101EB000209528232083DF91CF911F910F91FF90D0
:101EC000EF90DF90BF90AF900895DC011C96ED91EC
:101ED000FC911D97E05CFF4F2191319180819181B0
:101EE000281B390B2F733070C9010895DC011C9633
:101EF000ED91FC911D97E05CFF4F20813181E05412
:101F0000F040DF01AE5BBF4F8D919C911197281778
:101F1000390719F42FEF3FEF07C08D919C91E80F1F
:101F2000F91F8081282F30E0C9010895DC011C963B
:101F3000ED91FC911D97E05CFF4F20813181E054D1
:101F4000F040DF01AE5BBF4F8D919C911197281738
:101F5000390719F42FEF3FEF10C08D919C91119725
:101F6000E80FF91F20818D919C91119701968F7335
:101F7000907011969C938E9330E0C9010895FC01F6
:101F800086859785DC01A05CBF4FFC01EE5BFF4FAF
:101F90002D913C9111978081918128173907C1F7C4
:101FA0000895CF93DF93EC01462FEE85FF85E05C2B
:101FB000FF4F80819181E054F040019660E470E031
:101FC0000E94BF139C01DF01AE5BBF4F8D919C91BE
:101FD000119728173907D1F3E05CFF4F8081918179
:101FE000E054F040E80FF91F4083EE85FF85E05C88
:101FF000FF4F31832083EE89FF89208181E090E0CB
:102000000D8C02C0880F991F0A94E2F7282B2083B9
:1020100081E090E0DF91CF91089510921904109221
:10202000180488EE93E0A0E0B0E080931A04909347
:102030001B04A0931C04B0931D048DEE91E09093BB
:102040001704809316048EE893E090932304809302
:10205000220482ED93E0909325048093240485EC80
:1020600090E0909327048093260484EC90E0909372
:1020700029048093280480EC90E090932B048093B3
:102080002A0481EC90E090932D0480932C0486EC3C
:1020900090E090932F0480932E0484E0809330048A
:1020A00083E08093310487E08093320485E080935D
:1020B000330481E0809334040895CF92DF92EF924D
:1020C000FF920F931F93CF93DF937C016B018A01E3
:1020D000C0E0D0E00FC0D6016D916D01D701ED9148
:1020E000FC910190F081E02DC7010995C80FD91F1F
:1020F000015010400115110571F7CE01DF91CF910C
:102100001F910F91FF90EF90DF90CF900895EF9285
:10211000FF920F931F937B018C016115710581055F
:10212000910529F420E030E040E050E00BC00E942F
:102130004302A80197010E94F413AC01CB01DA011C
:102140009C01AD01B901CA011F910F91FF90EF9061
:102150000895CF93DF930E9474110E94A10AC3E8EF
:10216000DEE00E943D0B2097E1F30E94830EF9CF41
:102170000E94980108951F920F920FB60F9211249A
:102180002F933F938F939F93AF93BF938091390485
:1021900090913A04A0913B04B0913C0430913D04ED
:1021A0000196A11DB11D232F2D5F2D3720F02D5736
:1021B0000196A11DB11D20933D0480933904909395
:1021C0003A04A0933B04B0933C0480913504909171
:1021D0003604A0913704B09138040196A11DB11DB9
:1021E0008093350490933604A0933704B093380459
:1021F000BF91AF919F918F913F912F910F900FBE03
:102200000F901F9018958FB7F89420913904309152
:102210003A0440913B0450913C048FBFB901CA017C
:1022200008959B01AC017FB7F8948091350490919B
:102230003604A0913704B091380466B5A89B05C058
:102240006F3F19F00196A11DB11D7FBFBA2FA92FB5
:10225000982F8827860F911DA11DB11D62E0880F60
:10226000991FAA1FBB1F6A95D1F7BC012DC0FFB7EC
:10227000F8948091350490913604A0913704B09180
:102280003804E6B5A89B05C0EF3F19F00196A11DE3
:10229000B11DFFBFBA2FA92F982F88278E0F911D30
:1022A000A11DB11DE2E0880F991FAA1FBB1FEA956F
:1022B000D1F7861B970B885E9340C8F221503040BF
:1022C0004040504068517C4F211531054105510572
:1022D00071F60895019739F0880F991F880F991F9B
:1022E00002970197F1F70895789484B5826084BDD0
:1022F00084B5816084BD85B5826085BD85B581600A
:1023000085BDEEE6F0E0808181608083E1E8F0E069
:102310001082808182608083808181608083E0E898
:10232000F0E0808181608083E1EBF0E08081846077
:102330008083E0EBF0E0808181608083EAE7F0E079
:1023400080818460808380818260808380818160DD
:1023500080838081806880831092C100089580937B
:10236000E0010895982F8E3008F09E50977080916C
:10237000E0018295880F880F807C892B80937C00F8
:1023800080917A00806480937A0080917A0086FD43
:10239000FCCF2091780040917900942F80E030E0CC
:1023A000282B392BC9010895482F50E0CA01865ABD
:1023B0009E4FFC0124914A5B5E4FFA018491882371
:1023C000C1F0E82FF0E0EE0FFF1FE85DFE4FA59192
:1023D000B491662341F49FB7F8948C9120958223A1
:1023E0008C939FBF08959FB7F8948C91822B8C9308
:1023F0009FBF0895482F50E0CA0182599E4FFC01AB
:102400002491CA01865A9E4FFC0194914A5B5E4F0B
:10241000FA013491332309F440C0222351F12330CF
:1024200071F0243028F42130A1F0223011F514C0CD
:102430002630B1F02730C1F02430D9F404C08091A7
:1024400080008F7703C0809180008F7D8093800013
:1024500010C084B58F7702C084B58F7D84BD09C05C
:102460008091B0008F7703C08091B0008F7D809302
:10247000B000E32FF0E0EE0FFF1FEE5CFE4FA591E2
:10248000B4912FB7F894662321F48C919095892309
:1024900002C08C91892B8C932FBF0895682F70E018
:1024A000CB0182599E4FFC012491CB01865A9E4F4D
:1024B000FC0144916A5B7E4FFB019491992319F4CE
:1024C00020E030E03CC0222351F1233071F0243071
:1024D00028F42130A1F0223011F514C02630B1F0DB
:1024E0002730C1F02430D9F404C0809180008F7768
:1024F00003C0809180008F7D8093800010C084B5E0
:102500008F7702C084B58F7D84BD09C08091B000F3
:102510008F7703C08091B0008F7D8093B000892FAA
:1025200090E0880F991F845C9E4FFC01A591B491A7
:102530008C9120E030E0842311F021E030E0C901EB
:10254000089504D06894B11190C0089573D088F0B4
:102550009F5790F0B92F9927B751A0F0D1F0660F8F
:10256000771F881F991F1AF0BA95C9F712C0B130AA
:1025700081F07AD0B1E0089577C0672F782F88274F
:10258000B85F39F0B93FCCF3869577956795B395E9
:10259000D9F73EF490958095709561957F4F8F4F58
:1025A0009F4F0895E89409C097FB3EF4909580955D
:1025B000709561957F4F8F4F9F4F9923A9F0F92F09
:1025C00096E9BB279395F695879577956795B79587
:1025D000F111F8CFFAF4BB0F11F460FF1BC06F5F6D
:1025E0007F4F8F4F9F4F16C0882311F096E911C07F
:1025F000772321F09EE8872F762F05C0662371F0A0
:1026000096E8862F70E060E02AF09A95660F771FB3
:10261000881FDAF7880F9695879597F908959FEFA9
:1026200080EC089557FD9058440F551F59F05F3FB7
:1026300071F04795880F97FB991F61F09F3F79F0E4
:1026400087950895121613061406551FF2CF469566
:10265000F1DF08C0161617061806991FF1CF8695E8
:102660007105610508940895E894BB2766277727CC
:10267000CB0197F9089511F40EF4D1CF4AC0DADFF7
:10268000D0F39923D9F3CEF39F57550B87FF51D041
:1026900056959795B0E020F4660F771F881FBB1FF3
:1026A0001F930F9300249001A0018001F001A0E886
:1026B0000E0F1F1F0A1E511D601B710B8009B50BE9
:1026C00048F4600F711F801DB51F0E1B1F0B0A0AF7
:1026D000510907C02E0F3F1F4A1F0E0F1F1F0A1E52
:1026E000511D660F771F881FBB1FA695F795E795AD
:1026F000F8F60617170708065B07211D311D411D57
:102700000F911F91B901842F9158880F9695879545
:1027100008959F3F49F0915028F4869577956795E5
:10272000B7959F5F80389F4F880F9695879597F94B
:10273000089591505040660F771F881FD2F7089573
:10274000629FD001739FF001829FE00DF11D649F95
:10275000E00DF11D929FF00D839FF00D749FF00D21
:10276000659FF00D9927729FB00DE11DF91F639FC2
:10277000B00DE11DF91FBD01CF011124089597FB94
:10278000092E07260AD077FD04D049D006D00020B4
:102790001AF4709561957F4F0895F6F7909581959D
:1027A0009F4F0895A1E21A2EAA1BBB1BFD010DC06D
:1027B000AA1FBB1FEE1FFF1FA217B307E407F507F1
:1027C00020F0A21BB30BE40BF50B661F771F881FCD
:1027D000991F1A9469F760957095809590959B0163
:1027E000AC01BD01CF01089597FB092E05260ED03F
:1027F00057FD04D0D7DF0AD0001C38F4509540951F
:10280000309521953F4F4F4F5F4F0895F6F79095C4
:102810008095709561957F4F8F4F9F4F0895AA1BAC
:10282000BB1B51E107C0AA1FBB1FA617B70710F0BB
:10283000A61BB70B881F991F5A95A9F780959095ED
:10284000BC01CD010895EE0FFF1F0590F491E02D1E
:1028500009942F923F924F925F926F927F928F9244
:102860009F92AF92BF92CF92DF92EF92FF920F931F
:102870001F93CF93DF93CDB7DEB7CA1BDB0B0FB629
:10288000F894DEBF0FBECDBF09942A8839884888E6
:102890005F846E847D848C849B84AA84B984C8847C
:1028A000DF80EE80FD800C811B81AA81B981CE0F73
:1028B000D11D0FB6F894DEBF0FBECDBFED01089558
:1028C00011E0C6E8D1E004C0FE010E942514229662
:0A28D000C838D107C9F7F894FFCF0C
:1028DA004C45442043554245207265762E20310DE1
:1028EA000A0052414C5048002000420400000100F6
:1028FA0000002ED7E900A610E2001FFEF0011F7E9D
:10290A00F801297D84003F7CF8013FFCF8011F4251
:10291A0008013FFEF8013F7EF80144C51F012FFE62
:10292A00F8003F84F0012FC6F8003FFCF0013FFC9D
:10293A0010003FF4F80131FE18018E10E2001FC2A8
:10294A00E800A98C92002184F00171D7180171D690
:10295A001C012EC6E8003FFE10002FA5F4013FFE21
:10296A0014013F7CF8019F10420031C6F80131463C
:10297A00450031D61D0151111501511142001F1197
:10298A00F101000000000000010001000000000049
:10299A000001000000010001010100F00400030031
:1029AA000200060005000B000A00090008000700E3
:1029BA00010000000058022B0A00000000D10F5D40
:0A29CA0010650F960F760FBF0F0087
:00000001FF
